:100000000C9483050C94CA050C94CA050C94CA057B
:100010000C94CA050C94CA050C94CA050C94CA0524
:100020000C94CA050C94CA050C945D230C943124DD
:100030000C94A01A0C94CA050C94CA050C94CA0519
:100040000C94CA050C94CA050C94CA050C94CA05F4
:100050000C94CA050C94121B0C94CA050C94CA0586
:100060000C94CA050C94CA050C94CA050C94CA05D4
:100070000C94CA050C94CA050C94CA050C94CA05C4
:100080000C94CA050C94CA050C94CA050C94CA05B4
:100090000C94CA050C94CA050C94CA050C94CA05A4
:1000A0000C94CA050C94CA050C94CA056874747043
:1000B000733A2F2F716D6B2E666D2F012800514DF5
:1000C0004B206973207468652062657374207468BE
:1000D000696E67206576657221002B0014001A0096
:1000E0000800150017000000E000040016000700DB
:1000F00009000A000000E1001D001B0006001900B5
:10010000050000002900E200E30001510251000057
:1001100000002A002D00130012000C0018001C0023
:100120002800340033000F000E000D000B005200B9
:1001300038003700360010001100000051004F0059
:100140005000E7002C000000000035021E021F02D4
:1001500020022102220200000100680069006A00FA
:100160006B00BC0000000100010001000100010063
:100170000100000001000100010001000100000079
:10018000000030022F022702260225022402230249
:1001900001000100A900AA00A800BB00AE004B00AE
:1001A00031022E0201000100010000004E004D004E
:1001B0004A00010001000000000035001E001F0081
:1001C000200021002200000001003B003C003D0017
:1001D0003E003F000000010001000100010001009D
:1001E0000100000001000100010001000100000009
:1001F000000030002F0027002600250024002300E7
:1002000001004500440043004200410040004B0013
:1002100031002E0001000100010000004E004D00E1
:100220004A00010001000000000044454255473AE1
:100230002064697361626C65642E0A00444542550E
:10024000473A20656E61626C65642E0A000000000A
:1002500000000000002A2B28000000000000000021
:10026000000000000000000029000000002C1E34E7
:1002700020212224342627252E362D3738271E1FED
:10028000202122232425263333362E37381F040518
:10029000060708090A0B0C0D0E0F10111213141586
:1002A000161718191A1B1C1D2F3130232D35040564
:1002B000060708090A0B0C0D0E0F10111213141566
:1002C000161718191A1B1C1D2F3130354C00000051
:1002D000000000000000000000000000000000001E
:1002E000000000000000000000000000000000000E
:1002F00000000000000000000000000000000000FE
:1003000000000000000000000000000000000000ED
:1003100000000000000000000000000000000000DD
:1003200000000000000000000000000000000000CD
:1003300000000000000000000000000000000000BD
:1003400000000000000000000000000000000000AD
:10035000000000000000000000000000000000009D
:10036000000000000000000000000000000001018B
:100370000101010100010101010000000000000075
:100380000000000000000001000100010101010166
:10039000010101010101010101010101010101014D
:1003A0000101010101010101000000010100000043
:1003B000000000000000000000000000000000003D
:1003C000000000000000000001010101000A0025FA
:1003D000303862003A200025303258000A722F630C
:1003E0002030313233343536370A000A00253032B6
:1003F0005820006B6579626F6172645F7265706F1F
:1004000072743A20000A0025303258006B65796218
:100410006F6172645F7365745F6C65643A20003F5E
:1004200000433E20004C25640A0074696D65725FCC
:1004300072656164333228293A202530346C580AB9
:10044000006B6579626F6172645F69646C653A2004
:1004500025580A006B6579626F6172645F70726F14
:10046000746F636F6C3A2025580A00686F73745F6D
:100470006B6579626F6172645F6C65647328293A99
:100480002025580A000A092D2053746174757320C1
:100490002D0A004743433A20382E332E3020415650
:1004A000522D4C4942433A20322E302E30204156B4
:1004B000525F415243483A20617672350A004F50EC
:1004C00054494F4E533A204C5546412045585452BA
:1004D000414B455920434F4E534F4C4520434F4DC0
:1004E0004D414E4420343039360A004255494C447F
:1004F0003A2022302E372E34322D312D6766363693
:100500006232622D646972747922202830313A3166
:10051000383A3033204D617220323320323032305D
:10052000290A005649443A20307846454544287403
:100530002D6D6979616A696D6129205049443A20BD
:1005400030783030303028646F6D627269636B349C
:100550003529205645523A203078303030310A0063
:10056000444553433A2044766F72616B204F726961
:10057000656E746564204D656368616E6963616C66
:1005800020427265616B74686F7567682052656D93
:10059000616B61626C6520496E7465726573746924
:1005A0006E6720436F6F6C657374204B6579626F63
:1005B0006172640A000A092D2056657273696F6EB4
:1005C000202D0A000A092D20436F6E736F6C652081
:1005D0002D0A4553432F713A09717569740A000A4F
:1005E000092D204D61676963202D0A443A0944654D
:1005F000627567204D65737361676520546F676727
:100600006C650A583A094D617472697820446562D4
:100610007567204D6F646520546F67676C65202D8A
:100620002053686F77206B6579707265737365739B
:1006300020696E206D617472697820677269640A3E
:100640004B3A094B6579626F61726420446562754B
:100650006720546F67676C65202D2053686F772083
:100660006B65797072657373207265706F72740A4E
:100670004D3A094465627567204D6F757365205466
:100680006F67676C650A563A0956657273696F6ED3
:100690000A533A095374617475730A433A09416302
:1006A00074697661746520436F6E736F6C65204D5D
:1006B0006F64650A46312D4631303A0953776974C3
:1006C000636820746F204C6179657220302D392069
:1006D00028463130203D204C30290A302D393A0946
:1006E00053776974636820746F204C617965722058
:1006F000302D390A47524156453A09537769746398
:100700006820746F204C6179657220302028616CFC
:100710007465726E617465290A423A094A756D7092
:1007200020746F20426F6F746C6F616465720A454C
:1007300053433A094A756D7020746F20426F6F748D
:100740006C6F616465722028616C7465726E61748F
:1007500065290A453A095072696E74204545505220
:100760004F4D2053657474696E67730A425350414C
:1007700043453A09436C65617220454550524F4DDF
:100780000A000A002575002E6E6B726F3A20000A6F
:10079000002575002E737761705F6261636B736C07
:1007A0006173685F6261636B73706163653A2000B7
:1007B0000A002575002E737761705F677261766538
:1007C0005F6573633A20000A002575002E6E6F5F27
:1007D0006775693A20000A002575002E73776170ED
:1007E0005F72616C745F726775693A20000A002558
:1007F00075002E737761705F6C616C745F6C6775E8
:10080000693A20000A002575002E737761705F72C7
:1008100063746C5F726775693A20000A0025750081
:100820002E737761705F6C63746C5F6C6775693A87
:1008300020000A002575002E636170736C6F636B76
:100840005F746F5F636F6E74726F6C3A20000A00A2
:100850002575002E737761705F636F6E74726F6CB5
:100860005F636170736C6F636B3A20000A00253020
:100870003258006B65796D61705F636F6E66696792
:100880002E7261773A20000A002575002E6D6F7573
:1008900073653A20000A002575002E6B6579626F3A
:1008A0006172643A20000A002575002E6D61747231
:1008B00069783A20000A002575002E656E61626C29
:1008C000653A20000A002530325800646562756779
:1008D0005F636F6E6669672E7261773A20000A0067
:1008E00025750064656661756C745F6C617965720D
:1008F0003A20003F000A6D6F7573653A206F666697
:100900000A000A6D6F7573653A206F6E0A000A6BF4
:100910006579626F6172643A206F66660A000A6BDD
:100920006579626F6172643A206F6E0A000A6D61C8
:10093000747269783A206F66660A000A6D61747293
:1009400069783A206F6E0A000A64656275673A201A
:100950006F66660A000A64656275673A206F6E0A00
:10096000000A0A4A756D70696E6720746F20626FA5
:100970006F746C6F616465722E2E2E2000433E20D2
:1009800000436C656172696E6720454550524F4D5A
:100990000A006565636F6E6669673A0A005B735D9E
:1009A000004B6579626F6172642073746172742E9A
:1009B0000A005B575D005B535D005B525D005B446A
:1009C0005D005B435D00040330000000160364001B
:1009D0006F006D0062007200690063006B003400FC
:1009E00035000000160374002D006D0069007900C9
:1009F00061006A0069006D006100000004030904E1
:100A000009025B00030100A0320904000001030198
:100A1000010009211101000122400007058103089E
:100A2000000A09040100010300000009211101006E
:100A3000012236000705820320000A090402000291
:100A40000300000009211101000122220007058393
:100A5000032000010705030320000112011001001B
:100A6000000008EDFE00000100010203010631FF55
:100A70000974A1010975150026FF009520750881EC
:100A8000020976150026FF00952075089102C00521
:100A9000010980A10185031A81002A830016010043
:100AA000260300950175108100C0050C0901A10104
:100AB00085041A01002A9C02160100269C02950159
:100AC00075108100C005010906A101050719E0297B
:100AD000E7150025019508750181029501750881CA
:100AE000010507190029FF150026FF009506750866
:100AF00081000508190129059505750191029501E7
:100B000075039101C00011241FBECFEFDAE0DEBFF4
:100B1000CDBF04B603FE27C08091E9019091EA01A0
:100B2000A091EB01B091EC018730904BA740B04B06
:100B3000D1F41092E9011092EA011092EB011092A7
:100B4000EC0114BE84B7877F84BF0FB6F894A895D4
:100B500080916000886180936000109260000FBEF9
:100B6000E0E0F8E3099511E0A0E0B1E0E0ECFCE49E
:100B700002C005900D92AC32B107D9F721E0ACE28A
:100B8000B1E001C01D92A93EB207E1F70E947E20AC
:100B90000C9436260C940000FF93EF93E0912C0107
:100BA000F0912D01309709F00995EF91FF9108958B
:100BB000FC018591803011F0EFDFFBCF0895FF2716
:100BC000E0E230E247FF0CC0419597FF09C0EDE23B
:100BD0006095709580959095611D711D811D911D89
:100BE00027FF02C0219530E350E2AA27660F771F46
:100BF000881F991FAA1FA41710F0A41B63955A956C
:100C0000A9F7AA3008F0A95FA05DAF93F39561152D
:100C100071058105910541F7ED3211F4EF93F395DC
:100C2000F21718F43F93F395FBCF8F91B5DFFA9548
:100C3000E1F70895E991F9918591803021F08532AD
:100C400019F0AADFF9CF089520E0E89455915532C4
:100C5000C1F3503311F4689455915A3348F450530A
:100C600090F3220F022E220F220F200D250FF4CF1A
:100C70000EF4219589919991533619F3533729F13F
:100C8000533559F1BC0188279927E8945C3621F443
:100C90008991999168945591543639F446EF7EF0D4
:100CA00077FF0DC08FEF9FEF0AC055374AE039F04C
:100CB000583540E121F0523642E009F00895FF93A3
:100CC000EF937DDFEF91FF91B7CFFF93EF93FC019F
:100CD00081918030B9F360DFFBCFFF93EF9368DF42
:100CE000F1CFDF93CF93CDB7DEB72596A3DFCF91BA
:100CF000DF91089583302DE5920729F084309D45DA
:100D000059F081E00895FB0182818823D1F38EEBB5
:100D100090E00E943B07F5CFFB018281882389F395
:100D20008CEA90E0F6CF08950895089581E0089543
:100D30000C947A061F93CF93DF9300D000D00F92CC
:100D4000CDB7DEB749835A836B83209154018981E3
:100D50009A8121111BC06623A9F00E940318182F45
:100D6000682F89819A810E94AF1769817A81812FCA
:100D70000F900F900F900F900F90DF91CF911F91D8
:100D80000C9400090E94DB17182FEFCF0E94031864
:100D900069817A81EDCFFC0140815181628173814B
:100DA00084810C949A061F93CF93DF9390E0FC010B
:100DB000E35BFD4F1491FC01E35BFC4FD491835343
:100DC0009D4FFC01C491DD2319F081EE0E94540F68
:100DD000CC2319F086EE0E94540F812F0E948810B8
:100DE000CC2319F086EE0E943910DD2331F081EE1C
:100DF000DF91CF911F910C943910DF91CF911F910A
:100E00000895FF920F931F93CF93DF938C01F62EDB
:100E1000F8018491882349F1E8012196813049F451
:100E2000FE011491812F0E94540F812F0E943910CE
:100E300006C0823089F4FE0184910E94540F8E0115
:100E40000F5F1F4F8F2D815018F3EFE9FFE03197AF
:100E5000F1F700C00000F7CF833019F4FE01849150
:100E6000E5CF0E94D306E801EACFDF91CF911F9131
:100E70000F91FF90089560E00C9401070E9464199F
:100E8000811102C00E94011A0C94AD0B0C94AF0B9F
:100E90000C9495060C94480708950E94EF120E9446
:100EA0004C072FEF84E39CE0215080409040E1F715
:100EB00000C000000C94361B0F931F93CF93DF9359
:100EC0008C010E94CB06EC01B8010E949806882391
:100ED00009F474C0B801CE010E946D0D882309F495
:100EE0006DC0C6318CE5D80709F466C188F4C130FD
:100EF000FCE5DF0709F468C028F5C115DC4509F4F5
:100F000058C0C801DF91CF911F910F910C949606A4
:100F1000CE3DFCE5DF0709F46DC078F4CC3DECE58F
:100F2000DE0709F46EC0CD3DDC4559F7F80182813A
:100F3000882309F443C082E069C0CE018A5F9C45E2
:100F40000997F8F6F80182818823D9F20E94641982
:100F5000811102C00E94011A0E9477199093DB014F
:100F60008093DA01C031FCE5DF0709F4F4C008F032
:100F700087C0C830ECE5DE0709F4DDC008F05CC0CE
:100F8000C4308CE5D80709F4CEC008F042C0C230A6
:100F9000FCE5DF0709F4BFC0C330DC4509F4BFC07E
:100FA0008091DA019091DB010E9485190E94EF1275
:100FB00005C0F801828181110E944D0780E0DF9118
:100FC000CF911F910F910895F80182818823B1F389
:100FD0009091C501892F8E7F90FF81608093C5011C
:100FE00080FF05C08CE392E00E94D805E7CF8AE23B
:100FF00092E0FACFF8018281882301F30E94011A5E
:10100000DDCFF80182818823C9F280E00E9425218A
:10101000D5CF8091DA018061C630ECE5DE0709F4B6
:1010200047C08091DA018860C730DC4508F440C0D1
:101030008091DA0180623CC0CC308CE5D80709F49D
:1010400082C068F48091DA018C60CA30FCE5DF0769
:1010500079F108F474C08091DA018E7F29C0809103
:10106000DA01877FCE30ECE5DE0711F18091DA01FD
:101070008B7FCF30DC45E0F08091DA018F7E18C0A5
:10108000CB3F8CE5D80709F452C030F5C331FCE5FD
:10109000DF0709F468C078F4C131ECE5DE0709F434
:1010A0005EC08091DA018F77C231DC4509F078CFDC
:1010B0008093DA0175CFC5318CE5D80709F45BC0A0
:1010C00008F46FC08091DB018160CA3FDC4509F004
:1010D00067CF8093DB0164CFCF3F8CE5D80709F45D
:1010E00046C060F48091DB018D7FCD3FFCE5DF07DA
:1010F00081F368F18091DB018360EBCFC130EDE5D6
:10110000DE0709F455C008F442C0C230DD4509F0DD
:1011100047CF80E04EC08091DA018160C9CF8091D5
:10112000DA018260C5CF8091DA018460C1CF8091FD
:10113000DB018260CECF8091DA018064B9CF8091EB
:10114000DA018068B5CF8091DA018D7FB1CF8091CF
:10115000DB018E7FBECF8091DA018F7DA9CF809198
:10116000DA018F7BA5CF8091DA01837FA1CF8091B7
:10117000DB018C7FAECF8091DA0182FB992790F959
:1011800021E0922790FB82F990FB83F991CF809127
:10119000DB01982F909591708E7F892B90FB81F9C0
:1011A00098CF9091DA01892F97FB87F9805880CFEB
:1011B00081E00E94031AF4CE0E949818F8019281EF
:1011C000992381F08A7A91E009F490E090932E01BE
:1011D000811106C089E20E9473180E94E418EECEC5
:1011E00085E3F9CF80912E01811104C089E20E942C
:1011F0007A18F3CF85E3FBCF90E080E0089508955F
:10120000972F70E027E0929F600D711D1124FB0164
:1012100098E3899FE00DF11D1124EE0FFF1FE652A8
:10122000FF4F859194910895FC01EE0FFF1FE3534A
:10123000FC4F859194910895CF93DF930E9400090C
:101240000E94D30AEC01811520E5920708F042C004
:10125000811530E4930708F014C1883E910528F504
:10126000803E910508F0A0C0883A910588F4853A3F
:10127000910508F08FC08130910509F495C0009761
:1012800009F492C0049708F08FC0D0E0C0E08CC091
:101290008F3B910508F48CC0805C9109C03CD1055E
:1012A000A0F30E941409EC017FC08115904250F414
:1012B000C11581E0D80708F077C0C03FD10528F3F9
:1012C000D06572C0C11590E3D90708F0D0C0CE0137
:1012D0009F70E7CF811525E5920758F5811534E514
:1012E000930708F0FDC0811542E5940750F4C1153D
:1012F00081E5D80708F4C8C0DC2FCC27C16FD06ABD
:1013000053C0982F969596959E0123703327C1154B
:10131000D34508F0D6C0C1E0D0E002C0CC0FDD1F3D
:101320002A95E2F720E2929FC0011124C82BD92B05
:10133000C6C0C11589E5D807A8F4C11598E5D90735
:1013400008F0D3C0C11526E5D20708F09ECF8C2F38
:101350000E946A0BC82FD0E0DC2FCC27CC27DF718E
:10136000D06222C0C1153AE5D30708F4C3C0CE014C
:1013700090568115904208F088CF8D2F8F710E9472
:101380006A0B90E0982F882788279F719C012C2B4F
:10139000E901E6CF853A910509F4BAC0863A91058C
:1013A00009F0B9C0C2E8D0E4CE01DF91CF91089531
:1013B000883A910509F4B2C0893A910509F4B1C09F
:1013C0008A3A910509F4B0C08B3A910509F4AFC08F
:1013D0008C3A910509F4AEC08B3B910509F4ADC080
:1013E0008C3B910509F4ACC08D3A910509F4ABC072
:1013F000803B910509F4AAC08E3A910509F4A9C071
:101400008F3A910509F4A8C0813B910509F4A7C062
:10141000823B910509F4A6C0833B910509F4A5C060
:10142000843B910509F4A4C0853B910509F4A3C050
:10143000863B910509F4A2C0873B910509F4A1C040
:10144000883B910509F4A0C0893B910509F49FC030
:101450008D3B910509F49EC08E3B910509F49DC01A
:101460008A3B910509F49CC0C0E0D4E49DCFCE0135
:101470009927D3FF03C0EC01D86C96CFEC01D06C58
:1014800093CFDF70D06A90CFCE01E4E09695879538
:10149000EA95E1F783702C2F26952695237090E22C
:1014A000299F90011124382B8C2F8370C1E0D0E04C
:1014B00002C0CC0FDD1F8A95E2F7C22BD32BDC686C
:1014C00073CFC1E0D0E002C0CC0FDD1F2A95E2F758
:1014D00030E2939FC0011124C82BD92BDA6864CF66
:1014E000D82FCC27C46FD06A5FCFDC2FCC27C06F3A
:1014F000D06A5ACF8C2F8F700E946A0B34E0D69539
:10150000C7953A95E1F7CF709C2FEC01D0694CCF8D
:10151000C1E8D0E449CFC3E8D0E446CFC2EED4E47A
:1015200043CFC9EED4E440CFCAEED4E43DCFC5EBFF
:10153000D4E43ACFC6EBD4E437CFC3EBD4E434CF12
:10154000C4EBD4E431CFC7EBD4E42ECFCCECD4E45D
:101550002BCFCDECD4E428CFC3E8D5E425CFCAE81F
:10156000D5E422CFC2E9D5E41FCFC4E9D5E41CCF2E
:10157000C1E2D6E419CFC3E2D6E416CFC4E2D6E482
:1015800013CFC5E2D6E410CFC6E2D6E40DCFC7E252
:10159000D6E40ACFCFE6D4E407CFC0E7D4E404CF43
:1015A000CAE2D6E401CF82389105B1F1B0F48133BB
:1015B000910509F475C048F48932910509F469C0B0
:1015C0008A32910509F473C008958533910509F4B1
:1015D00059C08933910501F10895833E9105A9F120
:1015E00038F4803E9105F9F0823E910549F1089565
:1015F000863E9105A9F1873E9105C9F1843E91058A
:1016000019F52091DB0121FF1FC08091DA0184FDD3
:1016100014C087EE90E008952091DA012370A1F0C4
:1016200080EE90E008952091DA0120FD47C03091CE
:10163000DB0130FF09C024FF44C090E080E004C01B
:101640002091DA0122FDF7CF08952091DA0122FDE1
:101650003BC03091DB0130FDE3CF24FFF5CFEDCF70
:101660002091DA0123FFF0CF24FDE7CFD2CF2091E4
:10167000DA0123FD2CC03091DB0131FFEECF84EE87
:1016800090E008952091DA0125FFDECF89E290E015
:1016900008952091DA0125FFD7CF85E390E00895E2
:1016A0002091DA0126FFD0CF8AE290E008952091C0
:1016B000DA0126FFC9CF81E390E0089589E390E045
:1016C000089583EE90E0089582EE90E0089586EE0E
:1016D00090E008959091DA0192FF06C0282F2871BA
:1016E0002830F9F4877F846093FF06C0282F287183
:1016F0002831F1F4877E84612091DB0120FF06C050
:10170000382F38713830D9F4877F816021FF06C0C7
:10171000282F28712831D1F4877E816194FD877E3E
:101720000895282F24712430F9F68B7F8860DCCF50
:10173000282F2471243101F78B7E8861DDCF382F6B
:101740003171313019F78E7F8860E0CF282F2171F9
:10175000213121F78E7E8861E1CF0C9493060C94A1
:101760009406E82FF0E0E15DFE4F80810895CF926E
:10177000DF92EF92FF920F931F93CF93DF938CED45
:1017800093E00E94D8058FE2E82E81E0F82ED0E0A9
:10179000C0E097EDC92E93E0D92E0FEC13E0DF9354
:1017A000CF93DF92CF920E94710684ED93E00E9466
:1017B000D805F70181917F010E944C191F928F93E8
:1017C0001F930F930E9471068DEC93E00E94D80541
:1017D00021968DB79EB708960FB6F8949EBF0FBEA0
:1017E0008DBFC830D105D9F6DF91CF911F910F91F0
:1017F000FF90EF90DF90CF900895A4E1B1E061E019
:1018000070E08D91E82FE295EF70F0E041A18F70CC
:101810009B0101C0220F8A95EAF7922F909594239D
:1018200091A382A1822B82A381E0AC31B80749F752
:10183000ADE0B1E061E070E08D91E82FE295EF70EE
:10184000F0E041A18F709B0101C0220F8A95EAF759
:10185000922F9095942391A382A1822B82A381E061
:10186000A431B80749F7E7E3F1E0AFE2B1E08FE375
:1018700091E011921D928E179F07D9F788E00E9480
:10188000C90C0C943E077F928F929F92AF92BF92A9
:10189000CF92DF92EF92FF920F931F93CF93DF933C
:1018A00027E331E004E111E0712CEE24E394F12C04
:1018B000E901B9909E01DE011E92F80181918F012C
:1018C000E82FE295EF70F0E091A18F70B70101C0B1
:1018D000660F8A95EAF7892F862B81A382A1A62E0F
:1018E000A0948A2182A380EA8A95F1F78DE0C82E20
:1018F00081E0D82E50E040E0E60189906E01882D0D
:1019000082958F7090E0EC0188A19C9090E0D82D9A
:10191000DF7002C095958795DA95E2F780FD37C0B4
:101920008E2D042E01C0880F0A94EAF789298C9322
:101930004F5F5F4F47305105F9F681A18A2181A39E
:1019400082A1682B62A381E09C919B1101C080E081
:10195000782AD1E02F333D0709F0AACF272D48E0A0
:101960006FE271E087E391E00E94CA0C0E94460793
:10197000872DDF91CF911F910F91FF90EF90DF9016
:10198000CF90BF90AF909F908F907F90089580E010
:10199000CDCF0895FF920F931F93CF93DF93F82E2F
:1019A000092F162FD72FC42F222349F081E08093CF
:1019B00041010E94D01A9093400180933F01809191
:1019C00041018823A1F080913F01909140010E9444
:1019D000E81A069760F0EF2DF02FA12FBD2FCE0F44
:1019E000DF2FD11DEC17FD0741F410924101DF916B
:1019F000CF911F910F91FF90089581918D93F2CF18
:101A00000F931F93CF93DF93C62FD42F022FFC0188
:101A100082818823C9F0609344010E94D01A909378
:101A200043018093420180E28C0F883008F050C05F
:101A3000C77081E001C0880FCA95EAF7DF91CF91A6
:101A40001F910F910C949B1010914401161335C0F7
:101A500080914201909143010E94E81A883C9105CF
:101A600060F5C0E2CD0F1D17B9F080E2810F88301C
:101A700040F4177081E001C0880F1A95EAF70E94C0
:101A8000A210C83048F481E09D2F977001C0880FE4
:101A90009A95EAF70E949B10802F0E948810C83008
:101AA000B8F4D77081E001C0880FDA95EAF7DF91CA
:101AB000CF911F910F910C94A21080E28C0F88306F
:101AC00038F4C77081E001C0880FCA95EAF7EFCFFC
:101AD000DF91CF911F910F9108959C01CB01233F7E
:101AE0004CE5340731F190F4283DFCE53F07E9F07F
:101AF000293D4CE5340769F1273D3C4579F426E260
:101B000041EE61EE0E94000D80E00895253FFCE566
:101B10003F07B9F090F0263F3C45B9F0FC018281C7
:101B20008823D1F010924401089527E245EE65EE36
:101B3000E9CF26E241EE60EEE5CF27E245EE64EE26
:101B4000E1CF26E241EE62EEDDCF27E245EE66EE22
:101B5000D9CF28E241E0EBCF81E0089590934A018C
:101B6000809349010895E0914901F0914A0130972D
:101B700021F00190F081E02D099480E00895EF922A
:101B8000FF920F931F93CF93DF938C01E091490154
:101B9000F0914A013097C1F10280F381E02D09955F
:101BA0008091C50182FF30C080FF04C083EF93E0C5
:101BB0000E94D805D0E0C0E08DEEE82E83E0F82E3C
:101BC0008091C50180FF0EC0F801EC0FFD1F8081E0
:101BD0001F928F93FF92EF920E9471060F900F90C9
:101BE0000F900F902196C830D10551F78091C50113
:101BF00080FF0AC08BEE93E0DF91CF911F910F9190
:101C0000FF90EF900C94D805DF91CF911F910F9129
:101C1000FF90EF90089520914701309148012817D7
:101C2000390771F09093480180934701E091490191
:101C3000F0914A01309721F00680F781E02D099458
:101C4000089520914501309146012817390771F018
:101C50009093460180934501E0914901F0914A013A
:101C6000309721F00084F185E02D0994089585B71F
:101C7000806885BF85B7806885BF089508950895F9
:101C80000C943E0E08950C94420E0E94370E0E9452
:101C90003F0E0C94400E81E008950E94C71A0E94E6
:101CA000FD0B0E945A1B0C94430ECF93C82F8091BA
:101CB000C50182FF1EC080FF1CC08CE094E00E9422
:101CC000D8058091C50180FF14C01F92CF9387E093
:101CD00094E09F938F930E9471068091C5010F90AD
:101CE0000F900F900F9080FF04C085E094E00E9459
:101CF000D8058C2FCF910C944A07BF92CF92DF92D8
:101D0000EF92FF920F931F93CF93DF93CDB7DEB780
:101D10002A970FB6F894DEBF0FBECDBF0E94430CCA
:101D20000E944B0E882309F46FC08CE4C82E81E01A
:101D3000D82E10E000E0B02E802F0E94B10BE82ECC
:101D4000F601F1906F01F81609F458C08091C501B1
:101D500081FD0E94B70B90E080E0FE242F2D30E043
:101D6000482FB901082E02C0759567950A94E2F7CD
:101D700060FF3FC08E83BF8281E090E06C0102C0B3
:101D8000CC0CDD1C4A95E2F72E2D30E02C213D21B4
:101D9000232B09F480E088870E94D01A8160782F75
:101DA0009A8789874E815F8168858A850E94250F81
:101DB000F801E45BFE4F80818C2580830E94B30D87
:101DC00090914B01891789F10E94B30D80934B01CB
:101DD0002A960FB6F894DEBF0FBECDBFDF91CF912C
:101DE0001F910F91FF90EF90DF90CF90BF900C94D8
:101DF000550E01968730910509F0B2CF0F5F1F4F46
:101E00000830110509F097CF8FEF89838A831B82F1
:101E10000E94D01A8160782F9D838C8349815A81DA
:101E20006B818D810E94250FC9CF2A960FB6F89439
:101E3000DEBF0FBECDBFDF91CF911F910F91FF90FD
:101E4000EF90DF90CF90BF900895CF93DF93CDB701
:101E5000DEB72B970FB6F894DEBF0FBECDBF4F8312
:101E6000588769877A878B871E821D8285E0FE01ED
:101E70003796DE01119601900D928A95E1F749811E
:101E80005A816B817C818D819E812B960FB6F8944F
:101E9000DEBF0FBECDBFDF91CF910C948F15FC013B
:101EA000808191810C944518CF93C82F882309F421
:101EB000DEC08238C1F40E94B30D81FDD8C089E331
:101EC0000E9473180E94E4182FEF81EE94E02150D5
:101ED00080409040E1F700C0000089E30E947A183A
:101EE000CF910C94E4188338A1F40E94B30D80FDC7
:101EF000BEC083E50E9473180E94E4182FEF81EEA4
:101F000094E0215080409040E1F700C0000083E55C
:101F1000E5CF8438A1F40E94B30D82FDA8C087E408
:101F20000E9473180E94E4182FEF81EE94E0215074
:101F300080409040E1F700C0000087E4CFCF8CEFF5
:101F40008C0F813A48F48C2F0E94031E81118FC0A0
:101F50008C2F0E947318C4CF80E28C0F883048F415
:101F6000C77081E001C0880FCA95EAF70E949B18EC
:101F7000B7CF8BE58C0F833068F481E890E0C53AE9
:101F800031F083E890E0C63A11F482E890E0CF9116
:101F90000C940B0E88E58C0F873108F068C082EE38
:101FA00090E0C83A09F460C089EE90E0C93A09F4BB
:101FB0005BC08AEE90E0CA3A09F456C085EB90E027
:101FC000CB3A09F451C086EB90E0CC3A09F44CC00E
:101FD00083EB90E0CB3B09F447C084EB90E0CC3B33
:101FE00009F442C087EB90E0CD3AF1F18CEC90E03F
:101FF000C03BD1F18DEC90E0CE3AB1F183E891E0B5
:10200000CF3A91F18AE891E0C13B71F182E991E028
:10201000C23B51F184E991E0C33B31F181E292E0AE
:10202000C43B11F183E292E0C53BF1F084E292E01F
:10203000C63BD1F085E292E0C73BB1F086E292E088
:10204000C83B91F087E292E0C93B71F08FE690E0E7
:10205000CD3B51F080E790E0CE3B31F090E080E066
:10206000CA3B11F48AE292E0CF910C94210ECF91F9
:102070000895882309F44BC0823871F40E94B30D8F
:1020800081FF45C089E30E9473180E94E41889E328
:102090000E947A180C94E418833859F40E94B30D06
:1020A00080FF35C083E50E9473180E94E41883E521
:1020B000EFCF843859F40E94B30D82FF28C087E423
:1020C0000E9473180E94E41887E4E2CF9CEF980FF7
:1020D000913AF0F290E2980F983050F4877091E0C6
:1020E00001C0990F8A95EAF7892F0E94A118D2CFD3
:1020F0009BE5980F933020F490E080E00C940B0E59
:10210000885A873120F490E080E00C94210E0895E5
:10211000CF93C82F0E94540FC93349F42FEF87EE95
:1021200093E0215080409040E1F700C000008C2FE8
:10213000CF910C943910882321F00E949B180C94A5
:10214000E4180895882321F00E94A1180C94E41843
:102150000895BF92CF92DF92EF92FF920F931F9359
:10216000CF93DF936C01D62FC72FFC010581029519
:102170000F70128111110E94B8180E949118E82E58
:10218000882371F01123B1F080E28D0F883090F038
:1021900082E00E942F190E94911891E0E82EE92612
:1021A000BC2EB2949FE0B922EB2DF0E0E85CF94D33
:1021B0000C94EE25E12CF4CF0C2F0F70C07F11F0A2
:1021C0000295007F1123A9F0002359F080E28D0FC2
:1021D000883010F0D11109C0802F0E949B180E94F6
:1021E000E4188D2F0E94540F14C0802F0E94AB184A
:1021F000F6CF8D2F0E943910002359F080E28D0F09
:10220000883010F0D1112CC0802F0E94A1180E949C
:10221000E4182B2D2850330B2430310520F40E9474
:10222000B30D0E944A07EE2009F493C10E948D1855
:1022300080FD8FC1F60112820E9487180E94131739
:10224000C6010E94B3120E948718DF91CF911F919F
:102250000F91FF90EF90DF90CF90BF900C943417C8
:10226000802F0E94B118D3CFFC2FFF70FF2EC07FAC
:10227000C03219F0F29480EFF822DD2369F0D130FA
:1022800049F1112391F1002351F1F601858180FF7D
:10229000A8CF8F70858323C0112381F0011106C060
:1022A0000E94CB188F290E949B10B3CF0130C1F739
:1022B0000E94CB188F290E94D118ABCF011106C004
:1022C0000E94DA188F2D0E94A210A3CF013009F4CA
:1022D000A0CFF6CF112329F0063008F09ACF8F2D2A
:1022E000E2CF053008F095CFEDCF002359F3D93375
:1022F00049F4FFEF27EE33E0F15020403040E1F7A2
:1023000000C000008D2F0E94391083CF8C2F86953E
:102310008695837069F0813009F07BCF8D2F9C2FDB
:102320009370111102C090E080E00E94210E71CFE5
:102330008D2F9C2F9370111102C090E080E00E94BD
:102340000B0E67CF8C2F837009F041C0111161CF44
:102350004D2F429546954770440F440F0D2F0F7037
:1023600010E030E020E0042E04C0000F111F221FF7
:10237000331F0A94D2F760E070E0CB01D4FF0FC0A6
:102380006FE070E080E090E004C0660F771F881F68
:10239000991F4A95D2F76095709580959095C6954E
:1023A000C695C370602B712B822B932BC23049F0E2
:1023B00058F4C13019F00E94C5162BCF0E94B316F5
:1023C00028CF0E94D71625CF0E94B11622CF86951E
:1023D000112311F08C2F8170882309F41ACF4D2F0F
:1023E000429546954770440F440F0D2F0F7010E033
:1023F00030E020E0042E04C0000F111F221F331F05
:102400000A94D2F760E070E0CB01D4FF0FC06FE018
:1024100070E080E090E004C0660F771F881F991F6E
:102420004A95D2F76095709580959095C695C6951A
:10243000C370602B712B822B932BC23049F058F460
:10244000C13019F00E948A17E4CE0E947817E1CEBD
:102450000E949C17DECE0E94ED16DBCECF701123BA
:1024600029F08C2F0E9413178D2F1DCF8D2F0E94C6
:10247000A2108C2F0E943417CCCED23F89F160F489
:10248000D03FC9F0D13F29F1112309F442C0011115
:10249000A8CE8C2F8F7121C0D33F39F1D43FA1F743
:1024A000112369F1CF718C2F0E94131763E08C2FD9
:1024B0000E941A19AECE112341F0053008F0A9CEC2
:1024C0008C2F8F710E945717A4CE063008F0A1CE32
:1024D000F7CF8C2F8F71112369F20E94131799CEB9
:1024E0008C2F8F711123C9F3C5CF112329F08C2FA5
:1024F0008F710E94FE168DCE0E94F9168ACE81E061
:102500000E942F19023008F484CE82E00E942F1915
:1025100080CE002359F0D93309F0F4CE8FEF97EE37
:10252000E3E081509040E040E1F7EACE8C2F8F71DC
:10253000A1CF4C2F4F706D2FC6010E94FC080E9446
:10254000291667CE4C2F4F706D2FC6010E94FF08D1
:1025500060CEDF91CF911F910F91FF90EF90DF90B0
:10256000CF90BF9008950F931F93CF93DF93EC010B
:102570008B819C81892B29F08881998189238F3FC8
:1025800029F4DF91CF911F910F910895CE010E9400
:102590005C078823B1F3688179818A810E944F1892
:1025A0008C010E94AE170E94B016B801CE01DF91D7
:1025B000CF911F910F910C94A9100E94B8180E94FE
:1025C000C8180E94E41890E080E00E940B0E90E092
:1025D00080E00C94210E0E9481180C94DD120E9460
:1025E000A8180C94EB12E92FE295EF70E250EE3050
:1025F00070F4F0E0E85BF94D0C94EE25803F19F0A3
:1026000020F4883E20F481E00895843FE1F380E0E7
:102610000895883EC0F3813FD1F7F5CF93FB88271B
:1026200080F908950E9445180C94F312CF93DF931C
:1026300000D000D00F92CDB7DEB70F900F900F9063
:102640000F900F90DF91CF910895CF93DF9300D03B
:1026500000D000D0CDB7DEB726960FB6F894DEBF17
:102660000FBECDBFDF91CF9108951F93CF93DF931E
:10267000C091550116E0809156018C1304C0DF9182
:10268000CF911F910895D0E01C9FF0011D9FF00D88
:102690001124E95AFE4F4081518162817381848106
:1026A00095810E9425132196C770E5CF409187013F
:1026B000509188016091890170918A0180918B010C
:1026C00090918C010C9425131F93CF93DF938091ED
:1026D0008C01807FC1F4809189018823A1F08091D1
:1026E0005501C09156016091870170918801409118
:1026F0008A0150918B01D62FD723DA01A095B0958E
:1027000016E0C81304C0DF91CF911F91089590E0A7
:102710004115510511F0DF3F31F401968770F1CF7B
:102720002A0F3B1F17C0189FF001199FF00D1124AD
:10273000E95AFE4F21812713F0CF20812613EDCFD8
:1027400022812111EACF238134812417350740F3F8
:10275000241B350B283C310500F720918C012F708C
:10276000206120938C0126E0289FF001299FF00D25
:102770001124E45AFE4F80818F708061808387E846
:1027800091E00E94B312DF91CF911F910C94351309
:10279000BF92CF92DF92EF92FF920F931F93CF934E
:1027A000DF93CDB7DEB761970FB6F894DEBF0FBEEB
:1027B000CDBF8C0185E0F801DE011D9601900D92E0
:1027C0008A95E1F7D8014C9111965C911197129678
:1027D000EC90129780918A0190918B01009709F4F7
:1027E0007FC12091870130918801622F63236F3F61
:1027F00009F476C11396CD90DC90B0908901BB208E
:1028000009F411C1C816D906D0F1F601E81BF90B7D
:10281000CF01FF24F394883C910508F0F12C8091BE
:102820008C01982F907FFF2009F4B8C091117FC0D0
:10283000FE2C351329C0241327C0E11025C08F704A
:10284000806180938C010E94561387E891E00E947A
:10285000B31280918C01D80115968C938F2D6196BF
:102860000FB6F894DEBF0FBECDBFDF91CF911F91A1
:102870000F91FF90EF90DF90CF90BF9008958095DB
:1028800090958C0D9D1DC5CFCD2829F0852F8423D3
:102890008F3F09F041C180E0B82FB170DB2E80FF7F
:1028A0003CC0809155012091560136E0821315C03D
:1028B0004D875E878D859E850E944518292F22951C
:1028C0002F702230F0F0243018F59F70F1F0F801ED
:1028D0009581907FD1F4D12C1EC090E0389FF001FB
:1028E000399FF00D1124E95AFE4F6181651306C02E
:1028F0006081641303C06281E6120FC00196877085
:10290000D5CF9F7011F0882331F3805E883018F3A3
:10291000C8010E94B312FD2CA1CFEE2009F49ECF76
:1029200080918C01816080938C01F12C97CF3513BD
:1029300006C0241304C0D801EE2009F49AC04D87C4
:102940005E878D859E850E941213882319F1EE20E3
:1029500009F180918C01803270F0209187013091D3
:10296000880138872F831986DB86CA868C87CE013B
:1029700007960E94B31286E0F801A7E8B1E0019043
:102980000D928A95E1F70E9464130E945613FF246A
:10299000F39464CFC8010E94B312F9CF911113C010
:1029A0007C2DD98AC88A6E2D89890E94161387E8E2
:1029B00091E00E94B31286E0E7E8F1E0DF011D92AA
:1029C0008A95E9F763C0351312C0241310C0E110D3
:1029D0000EC0F8018583C8010E94B312E7E8F1E058
:1029E00086E0DF011D928A95E9F7FB2C37CF4D87F2
:1029F0005E878D859E850E941213882359F2EE20F2
:102A000049F280918C01803208F4B5CF2091870182
:102A1000309188013A8329831B82DD82CC828E83A8
:102A2000CE010196A6CFC816D90698F1F601E81B8B
:102A3000F90BCF01F12C883C910508F049C0FE2C20
:102A4000EE2009F4A7CF351332C0241330C0809193
:102A50008C0180FD23C0982F907F01F1D80115963D
:102A60008C931597903F39F0982F907F905F8F70DF
:102A7000892B15968C93C8010E94B31286E0F80149
:102A8000A7E8B1E001900D928A95E1F70E945613F4
:102A9000E5CE809590958C0D9D1DCCCF86E0F801FC
:102AA000A7E8B1E001900D928A95E1F7D7CE4D8766
:102AB0005E878D859E850E94121381115CCF809167
:102AC0008C01816080938C01C8010E94B312C6CE34
:102AD0007C2DD98AC88A6E2D89890E9416136BCFE6
:102AE000EE2009F457CF4D875E878D859E850E9425
:102AF0001213F82E882309F44DCF86E0F801A7E8D9
:102B0000B1E001900D928A95E1F787E891E00E948B
:102B10004F0F0E946413BACF81E08E25BDCE1F9364
:102B2000CF93DF93CDB7DEB72C970FB6F894DEBF07
:102B30000FBECDBF4F83588769877A878B879C8765
:102B4000CE0107960E94C813882369F08A859B8569
:102B5000892B39F04F815885842F85238F3F09F0C9
:102B600071C016E05FC086E0FE013796DE01119667
:102B700001900D928A95E1F78A859B85892B89F3CF
:102B800088859F8189238F3F61F32091560130E032
:102B9000C901019687709927409155014817190678
:102BA00071F40E94EF12109256011092550186E0C6
:102BB000E7E8F1E0DF011D928A95E9F7D2CF96E0D0
:102BC000929FD001939FB00D1124A95ABE4FFE01D0
:102BD000319601900D929A95E1F7809356010E94EB
:102BE0003513BFCF819FC0011124895A9E4F0E9487
:102BF000C8138823E9F0E09155011E9FF0011124CC
:102C0000E95AFE4F408151816281738184819581AF
:102C10000E9425138091550190E0019687709927B5
:102C20008093550180915501909156018913DACF17
:102C30002C960FB6F894DEBF0FBECDBFDF91CF91BB
:102C40001F91089569857A858B859C850E9425133F
:102C500088CFEF92FF920F931F93CF93DF938C0156
:102C6000892B81F0F12CEE24E394E8012196F80100
:102C70008491843770F4843008F05FC08130B1F003
:102C80008230A1F1DF91CF911F910F91FF90EF90D2
:102C90000895853709F44CC008F43DC09CE7980FAF
:102CA000903780F78F770E94391049C00E5F1F4F11
:102CB000FE01849190E2980F983060F48770FE2DA9
:102CC00001C0FF0F8A95EAF78F2F0E94BB180E9460
:102CD000E41802C00E94540F8F2D815030F2EFE9AA
:102CE000FFE03197F1F700C00000F7CF0E5F1F4FF4
:102CF000FE01849190E2980F983050F48770FE2D79
:102D000001C0FF0F8A95EAF78F2F0E94C118DFCF0D
:102D10000E943910E1CF0E5F1F4FFE01C491C150D8
:102D2000D8F28FE99FE00197F1F700C00000F7CFDC
:102D30000E5F1F4FFE01F490CFCF0E94540F8E0103
:102D4000CBCF08950C94A1160E94A2166093B401F3
:102D50007093B5018093B6019093B7010C94DD1286
:102D600008950C94A4160F931F930091B401109131
:102D7000B5012091B6013091B701602B712B822BE8
:102D8000932B1F910F910C94A4160F931F930091F6
:102D9000B4011091B5012091B6013091B7016023C3
:102DA0007123822393231F910F910C94A4160F93E8
:102DB0001F930091B4011091B5012091B60130919B
:102DC000B70160277127822793271F910F910C94D9
:102DD000A4160C94A1160C94E9160E94EB166093AD
:102DE000B0017093B1018093B2019093B3010C9440
:102DF000DD1260E070E0CB010C94ED160F931F9391
:102E000041E050E060E070E08A019B0104C0000FE7
:102E1000111F221F331F8A95D2F7C901B8011F91D4
:102E20000F910C94ED160F931F9341E050E060E07A
:102E300070E004C0440F551F661F771F8A95D2F7B4
:102E40008091B0019091B101A091B201B091B30114
:102E50008A019B01082B192B2A2B3B2BC901B80196
:102E60001F910F910C94ED160F931F9341E050E0CA
:102E700060E070E004C0440F551F661F771F8A95FD
:102E8000D2F7CB01BA01609570958095909500912D
:102E9000B0011091B1012091B2013091B3016023D2
:102EA0007123822393231F910F910C94ED160F939E
:102EB0001F9341E050E060E070E004C0440F551FF4
:102EC000661F771F8A95D2F78091B0019091B1016A
:102ED000A091B201B091B3018A019B010827192783
:102EE0002A273B27C901B8011F910F910C94ED16B9
:102EF0000F931F930091B0011091B1012091B20185
:102F00003091B301602B712B822B932B1F910F916A
:102F10000C94ED160F931F930091B0011091B10125
:102F20002091B2013091B301602371238223932356
:102F30001F910F910C94ED160F931F930091B00108
:102F40001091B1012091B2013091B3016027712736
:102F5000822793271F910F910C94ED16089527E077
:102F6000929F800D1124982F977041E001C0440F6B
:102F70009A95EAF786958695869595E0899FF00162
:102F80001124E357FE4F90E080E070E05191DF01A3
:102F900011979B01082E02C0369527950A94E2F7F7
:102FA000217021952527242325272C9301968530F0
:102FB000910561F7089527E0929F800D1124982FC5
:102FC000977086958695869525E0829FF00111245D
:102FD000E357FE4F50E040E080E0219130E0092EC1
:102FE00002C0369527950A94E2F721703327042E04
:102FF00001C0220F0A94EAF7822B4F5F5F4F4530E2
:10300000510559F70895BF92CF92DF92EF92FF9248
:103010000F931F93CF93DF938C01C090B001D0909A
:10302000B101E090B201F090B3018091B4019091B0
:10303000B501A091B601B091B701C82AD92AEA2AF0
:10304000FB2ACFE1D0E0BC2ED701C6010C2E04C074
:10305000B695A795979587950A94D2F780FD0EC0EF
:10306000219788F7B12C8B2DDF91CF911F910F9174
:10307000FF90EF90DF90CF90BF900895B8018C2F14
:103080000E941C09019761F3EECFCF93DF93EC010F
:103090000E940318BE01DF91CF910C941C091F936D
:1030A000CF93DF93EB0190915401992331F0CB0141
:1030B000DF91CF911F910C944518882379F0CB01B3
:1030C0000E940318182F682FCE010E94AF17BE016F
:1030D000812FDF91CF911F910C941C09CB010E948D
:1030E000DB17182FF4CF682F809100019091010118
:1030F0000C94411A682F80910001909101010C9469
:10310000431A80910001909101010C94451A80911D
:10311000B80185958595859508958091B80187704A
:1031200008959091B801977081E009F480E00895C6
:103130008091C40108959091C401892B8093C401AA
:10314000089580959091C40198239093C4010895A7
:103150001092C40108959091C301892B8093C301FB
:10316000089580959091C30198239093C301089589
:103170001092C30108959091C201892B8093C201DE
:10318000089580959091C20198239093C20108956B
:103190001092C20108958091B901089508950C9488
:1031A000CE189091B901981721F08093B9010C9431
:1031B000CF1808958091B901882329F01092B901A0
:1031C00080E00C94CF180895E0910001F091010186
:1031D0008091C4018083E0910001F0910101808120
:1031E0009091C301892B8083E0910001F09101014E
:1031F00080819091C201892B80839091B90199239C
:1032000081F0E0910001F09101018081892B8083A0
:1032100080910001909101010E94081A81110E9481
:10322000DA1880910001909101010C94BF0D08956E
:103230000C94171998E0899F90011124622B6093D8
:10324000B8010E9413178091B801859585958595E1
:103250000C9418191092B80180E00C9418199091F0
:10326000B801809589238093B801282F277071F4C5
:10327000282F082E000C330B9217130639F0859572
:10328000859585950E9434170C942A19089590937A
:103290002D0180932C010895829590E09C01220FCE
:1032A000331F220F331F2C7C959587959595879515
:1032B0008373282B30E0C901880F991F8A7A3595CE
:1032C00027952575822B089590E080E00E94FC25CB
:1032D00021E08C3E9E4F09F020E0822F089582E08D
:1032E00090E00C94F42583E090E00C94F425CF93C7
:1032F00084E090E00E94F425C82F81E290E00E94D3
:10330000F425982F8C2FCF910895CF93C92F682F34
:1033100084E090E00E9402266C2F81E290E0CF9141
:103320000C940226AB01BC018FE090E00C941426B3
:10333000AB01BC0183E190E00C94142660E070E0E6
:10334000CB010C94981960E070E0CB010E949219B7
:103350000C949E196CEE7EEF90E080E00E94202697
:1033600060E082E090E00E94022660E083E090E06E
:103370000E9402261092B4011092B5011092B6017B
:103380001092B70160E084E090E00E94022660E0C5
:1033900081E290E00E94022660E085E090E00E94D9
:1033A000022660E086E090E00E9402266FEF87E050
:1033B00090E00E94022640E050E0BA0188E090E0F0
:1033C0000E94142660E08DE090E00E94022640E01A
:1033D00050E0BA0188E190E00E94142660E087E1A5
:1033E00090E00E94022640E050E0BA018CE190E0BB
:1033F0000E94142660E080E290E00E9402260C9475
:10340000A3190C94AA19682F8EE090E00C94022660
:103410009C012E5F3F4FAC01485F5F4F80E0241757
:10342000350709F40895F90191919F019923B9F3A2
:103430008F5FF5CF9C01FC0132969FEF80E04191B8
:10344000461751F09F3F19F4411101C0982F8F5F2B
:103450008630A9F79F3F09F40895290F311D97FD84
:103460003A95F90162830895FC01329608962191FC
:10347000261303C0DF0111971C92E817F907B9F76B
:1034800008950C941A1A0C94341A029626E0FC0142
:1034900011922A95E9F70895089508950C944D1A0C
:1034A0000E944E1A8091E001843049F11092C601C9
:1034B00088E190E020E40FB6F894A895809360002E
:1034C0000FBE2093600080E00E944A070E944E1ABF
:1034D00083B7817F846083BF83B7816083BF789423
:1034E000889583B78E7F83BF0FB6F894A895809197
:1034F0006000886180936000109260000FBE0895A4
:103500000895CF930E944C1A0E94430C0E94801A87
:10351000C0E08C2F0E94B10B811105C0CF5FC83075
:10352000C1F7CF91089581E0FCCF08950C94951ACE
:103530000E94EF120E94B30D0E944A070C94961A43
:103540001F921FB61F9211248F939F93AF93BF9327
:103550008091C601811113C08091D6019091D7014D
:10356000A091D801B091D9014196A11DB11D8093C0
:10357000D6019093D701A093D801B093D901BF9100
:10358000AF919F918F911F901FBE1F90189582E061
:1035900084BD93E095BD9AEF97BD80936E0008952A
:1035A0002FB7F8948091D6019091D701A091D801BE
:1035B000B091D9012FBF08952FB7F8946091D6012B
:1035C0007091D7018091D8019091D9012FBF0895B2
:1035D000CF92DF92EF92FF920F931F932FB7F89441
:1035E0004091D6015091D7016091D8017091D901D5
:1035F0002FBF6A017B01EE24FF248C0130E020E024
:10360000C016D106E206F30650F0481B590BCA015A
:103610001F910F91FF90EF90DF90CF900895415050
:103620005109F3CF78941F921FB61F9211248F93E4
:103630009F93AF93BF938091D6019091D701A091B2
:10364000D801B091D9010196A11DB11D8093D60179
:103650009093D701A093D801B093D901BF91AF91B6
:103660009F918F911F901FBE1F90189581E08093AE
:10367000E00080E28093D8001092C9008FE19EE4C0
:103680000197F1F700C0000087E090EBDC01809328
:10369000E9019093EA01A093EB01B093EC0188E17A
:1036A0009CE00FB6F894A895809360000FBE9093AD
:1036B0006000FFCF0E946419811102C00E94011AAC
:1036C0000E946F198093C5010E9477199093DB01C6
:1036D0008093DA010E947319682F70E090E080E017
:1036E0000C94B116CF93C82F1F928F9385E294E06C
:1036F0009F938F930E94710661E070E080E090E0FC
:1037000004C0660F771F881F991FCA95D2F70E94C1
:10371000B1160F900F900F900F90CF910C94EF1265
:10372000CF93DF938B3109F409C208F0A0C18B302D
:1037300009F4C7C108F06AC1863009F4D5C148F45C
:10374000853009F4A2C183EF98E00E94D80580E09B
:10375000DBC1873009F4DBC18830A9F782E999E041
:103760000E94D80583EE98E00E94D8050E94731944
:103770001F928F9380EE98E09F938F930E94710623
:103780008EED98E00E94D8050E946F19C82F8BEC2F
:1037900098E00E94D8051F92CF9386EC98E09F9303
:1037A0008F930E94710684EC98E00E94D8058AEB02
:1037B00098E00E94D8058C2F81701F928F9387EB21
:1037C00098E09F938F930E94710685EB98E00E948A
:1037D000D8058BEA98E00E94D805C1FB882780F9BC
:1037E0001F928F9388EA98E09F938F930E947106AF
:1037F00086EA98E00E94D8058AE998E00E94D805F8
:10380000C2FB882780F91F928F9387E998E09F93E6
:103810008F930E94710685E998E00E94D8058CE894
:1038200098E00E94D805C3FBCC27C0F91F92CF9324
:1038300089E898E09F938F930E94710687E898E04B
:103840000E94D8050E947719EC0183E798E00E9456
:10385000D805DF93CF938EE698E09F938F930E94D5
:1038600071068CE698E00E94D80583E598E00E94F6
:10387000D8058C2F81701F928F9380E598E09F93DD
:103880008F930E9471068DB79EB780960FB6F894FD
:103890009EBF0FBE8DBF8EE498E00E94D80587E3DF
:1038A00098E00E94D805C1FB882780F91F928F936A
:1038B00084E398E09F938F930E94710682E398E0DF
:1038C0000E94D80580E298E00E94D8058D2F817073
:1038D0001F928F938DE198E09F938F930E947106C2
:1038E0008BE198E00E94D80589E098E00E94D80515
:1038F000D695D1701F92DF9386E098E09F938F93C7
:103900000E94710684E098E00E94D80582EF97E05B
:103910000E94D805C2FB882780F91F928F938FEEF3
:1039200097E09F938F930E9471068DEE97E00E941F
:10393000D8058BED97E00E94D805C3FB882780F956
:103940001F928F9388ED97E09F938F930E9471064B
:1039500086ED97E00E94D8058CEC97E00E94D80590
:10396000C4FB882780F91F928F9389EC97E09F937F
:103970008F930E94710687EC97E00E94D80585EB33
:1039800097E00E94D805C5FB882780F91F928F9386
:1039900082EB97E09F938F930E94710680EB97E0F4
:1039A0000E94D80584E997E00E94D805C6FB8827C5
:1039B00080F91F928F9381E997E09F938F930E94E4
:1039C00071068DB79EB780960FB6F8949EBF0FBE56
:1039D0008DBF8FE897E00E94D80587E897E00E94A6
:1039E000D805C7FBCC27C0F91F92CF9384E897E096
:1039F0009F938F930E94710682E897E00E94D805FA
:103A00000F900F900F900F9081E07EC0803109F4ED
:103A1000ADC080F48E3009F096CE9091C501892F0B
:103A20008B7F92FF84608093C50182FF9CC08EE1F2
:103A300099E090C0863109F4A9C0893109F083CE9C
:103A400085EB95E00E94D80580E695E00E94D805B8
:103A500083E295E00E94D8058BEE94E00E94D805A1
:103A60008EEB94E00E94D80583E994E02CC08A3262
:103A7000A1F1E8F4873269F128F48E3108F463CEBD
:103A80008D5128C0893209F05ECE0E94EF1281E686
:103A900099E00E94D8059FEF23ED80E391502040EC
:103AA0008040E1F700C000000E94361BADCF833498
:103AB00068F48A3308F0A1C0853359F0883309F0DF
:103AC00042CE8FED95E00E94D8059ECF833409F059
:103AD0003ACE80E00E94721B97CF81E899E00E9465
:103AE000D8050E94011A90CF8091C501807F8093F4
:103AF000C50184EC95E00E94D8058DE799E00E940D
:103B0000D80581E08093C701DF91CF91089590910E
:103B1000C501892F8E7F90FF81608093C50180FF52
:103B200003C085E599E0CFCF88E499E00E94D805ED
:103B30008091C501817F8093C50166CF9091C501B9
:103B4000892F8D7F91FF82608093C50181FF08C01E
:103B50008BE399E00E94D8058091C5018160EBCF8D
:103B60008DE299E0B0CF8EE099E0ADCF9091C501A4
:103B7000892F877F93FF88608093C50183FF03C0EF
:103B800082E099E0E7CF85EF98E09DCF85E894E06B
:103B90000E94D8050E94B30D1F928F938BE694E08C
:103BA0009F938F930E94710680910C011F928F93B7
:103BB00084E594E09F938F930E9471068091D401D5
:103BC0001F928F9381E494E09F938F930E947106DC
:103BD0000E94DC1A9F938F937F936F938AE294E005
:103BE0009F938F930E9471068DB79EB742960FB632
:103BF000F8949EBF0FBE8DBF07CF89536BCF80E077
:103C000008950C94FF1DCF93C82F8091C70188237E
:103C100031F0813099F01092C70180E00DC00E9410
:103C200098188232D1F78C2F0E94FF1D811119C084
:103C30008C2F0E94901B8170CF9108950E9498183C
:103C4000823289F38C2F0E94011E811119C0C43168
:103C5000C9F050F4CB3061F08FE194E00E94D805B8
:103C600013C081E090E0E7CFC93261F0C833A1F71B
:103C700084EC95E00E94D80581E294E00E94D8058A
:103C800081E0D9CF1092C70180E0D5CF8091D301D8
:103C9000089508959FB7F8941092CA019FBF90911C
:103CA000E001943009F048C02091E9002F70309174
:103CB000EC00932F917030FD90E8922B23E020933D
:103CC000E9002091EB0020FF34C02091EE0027FF97
:103CD00030C02091C801222321F02091E80025FF67
:103CE00028C01092C80126E03091E80035FF14C0CA
:103CF0008093F1008091E80085FD27C08091E80065
:103D000080FFFCCF8091E8008E778093E8009F7061
:103D10009093E90080E008953091E001343049F457
:103D20003091EB0035FD05C0215041F481E08093D6
:103D3000C8019F709093E9008FEF0895EFE9FFE0CD
:103D40003197F1F700C00000CFCF8FB7F89421E092
:103D50002093CA018FBFDBCF0F931F93CF93DF93C5
:103D600000D00F92CDB7DEB78C010E943521823092
:103D700011F0843021F584E089831B830A8382E07B
:103D80008093E9008FEF9091E800815095FD06C087
:103D900095ED9A95F1F700008111F5CF8091E8003B
:103DA00085FF0DC050E040E063E070E0CE01019679
:103DB0000E9452218091E8008E778093E8000F9056
:103DC0000F900F90DF91CF911F910F910895CF9396
:103DD000DF9300D00F92CDB7DEB72091E001243001
:103DE00031F523E02983805891099B838A8382E0FF
:103DF0008093E9008FEF9091E800815095FD06C017
:103E000095ED9A95F1F700008111F5CF8091E800CA
:103E100085FF0DC050E040E063E070E0CE01019608
:103E20000E9452218091E8008E778093E8000F90E5
:103E30000F900F90DF91CF910895CF93DF93EC0116
:103E40000E943521823011F0843039F581E0809371
:103E5000E9008FEF9091E800815095FD06C095ED47
:103E60009A95F1F700008111F5CF8091E80085FF68
:103E700014C050E040E068E070E0CE010E945221A2
:103E80008091E8008E778093E80088E0FE01ABEC3B
:103E9000B1E001900D928A95E1F7DF91CF910895FD
:103EA00082EC99E00E94D8058091DF01811109C060
:103EB0000E94E2220E943F238091E200846080936E
:103EC000E20008958EEB99E00E94D8051092DF0180
:103ED00008958AEB99E00C94D80586EB99E00C9450
:103EE000D80582EB99E00E94D8050C94981A20918D
:103EF000C9012F5F822F62E30E94E225992319F006
:103F00002093C90108951092C9018091CA018823A4
:103F1000F1F08091E0018430C1F49091E9009F704C
:103F20002091EC00822F817020FD80E8892B93E0A6
:103F30009093E9009091EB0090FF04C09091EE0007
:103F400097FD08C08F708093E9001092CA01089510
:103F50001092F1009091E80095FDFACF9091E80061
:103F600090FFF0CF9091E8009E779093E800EACF21
:103F700042E061EC81E00E945E2242E261EC82E07C
:103F80000E945E2242E261EC83E00C945E2280910A
:103F9000E201833009F45FC030F48130C1F1823036
:103FA00009F49BC008958A3009F487C08B3009F466
:103FB0006DC0893009F04EC08091E101813209F075
:103FC00049C08091E5019091E601029708F042C056
:103FD0008091E800877F8093E8008091E80082FF6D
:103FE00035C09091F3008091F200029729F48091FE
:103FF000F1008B7F813021F48091F1008093D30117
:104000008091E8008B778093E8000C949222809155
:10401000E101813AF9F48091E800877F8093E8001C
:104020008091E5019091E601892B61F468E08BECC9
:1040300091E070E00E94A1218091E8008B7780934D
:10404000E800089560E090E080E0F3CF8091E00127
:104050008111C3CF08958091E101813AD9F7809110
:10406000E5019091E601892BA9F78091E800877F0F
:104070008093E8008091E80080FFFCCF80910C01E4
:104080008093F1008091E8008E77BDCF8091E101AF
:10409000813201F78091E5019091E601892BD1F6FB
:1040A0008091E800877F8093E8000E9492228091AF
:1040B000E30180930C010C94EF128091E1018132B5
:1040C00049F68091E800877F8093E8000E94922261
:1040D0008091E4018093D40108958091E101813AB7
:1040E00009F0B8CF8091E800877F8093E800809145
:1040F000E80080FFFCCF8091D401C2CF84B7877FD6
:1041000084BF0FB6F894A895809160008861809371
:104110006000109260000FBE80E8809361001092F2
:1041200061000E94450E0E94E2220E943F2380917E
:10413000E20084608093E2008AE49EE10E944719D5
:1041400078940E94C7250E944D0E82E091E00E9463
:10415000AE0D81EA99E00E94D8058091E00185309A
:1041600019F00E947D0EF9CF8DE999E00E94D805E3
:104170000E94501A8091DE01882379F30E94811AEF
:10418000882359F30E943C21E8CF0C94C720292FA3
:1041900033272330310521F168F42130310509F44A
:1041A00049C02230310509F44AC090E080E030E097
:1041B00020E029C02132310581F122323105A9F7F1
:1041C0006330710590F7FB01EE0FFF1FE15EFE4FBC
:1041D00020813181645E7E4FFB01808190E013C0BD
:1041E00099278130910599F0009741F0823091052F
:1041F00089F00397D1F6E6ECF9E002C0ECEFF9E0C4
:10420000849190E09F01FA01318320830895E4EEC8
:10421000F9E0F6CFECECF9E0F3CF6330710528F666
:10422000660F771FFB01EB5DFE4F2081318189E036
:1042300090E0E9CF82E190E02BE53AE0E4CF8BE536
:1042400090E020E03AE0DFCF0895CF93C82F0E949E
:104250002421C093D501CF9108958091E00184304D
:1042600011F482E0089581E008958091D5018111D3
:1042700002C00C942D21089580E189BD82E189BDA1
:1042800009B400FEFDCF8091D8008F7D8093D800C7
:104290008091E00082608093E0008091E00081FDE9
:1042A000FCCF0895AF92BF92CF92DF92FF920F930F
:1042B0001F93CF93DF936C01EB018A010E94B1221F
:1042C000F82E811123C00115110539F0F801808104
:1042D0009181C81BD90BC80ED91EB12CA12C2097D7
:1042E000A9F08091E80085FD22C08091E8008E77DA
:1042F0008093E80001151105A1F0F80180819181FA
:10430000A80EB91EB182A08285E0F82E8F2DDF9114
:10431000CF911F910F91FF90DF90CF90BF90AF9002
:1043200008950E94B1228823D1F2F82EEFCFF60132
:1043300081916F018093F1002197FFEFAF1ABF0ABF
:10434000CECFFC018091E7019091E8018617970795
:10435000A0F06115710529F49091E8009E77909383
:10436000E80090E06115710551F4911108C0809149
:10437000E80082FF34C080E00895BC01F2CF809154
:10438000E0018823C1F18530C1F18091E80083FD0F
:1043900030C08091E80082FDEACF8091E80080FF84
:1043A000E1CF8091F3002091F200382F6115710563
:1043B00019F02830310558F091E02830310509F026
:1043C00090E02091E8002E772093E800CBCF8191F8
:1043D0008093F100615071092F5F3F4FE7CF8091CB
:1043E000E001882341F0853041F08091E80083FFAF
:1043F000BECF81E0089582E0089583E00895FC0136
:104400008091E7019091E80186179707A0F0611568
:10441000710529F48091E8008E778093E80090E0A0
:104420006115710551F4911108C08091E80082FF77
:1044300035C080E00895BC01F2CF8091E00188236F
:10444000C9F18530C9F18091E80083FD31C08091C8
:10445000E80082FDEACF8091E80080FFE1CF809103
:10446000F3002091F200382F6115710519F0283002
:10447000310558F091E02830310509F090E0809145
:10448000E8008E778093E800CBCF84918093F10091
:104490003196615071092F5F3F4FE6CF8091E00167
:1044A000882341F0853041F08091E80083FFBDCF43
:1044B00081E0089582E0089583E00895982F973071
:1044C00028F08F708093E90081E008959093E900CF
:1044D000242F762F50E0981731F07091EC00209146
:1044E000ED005091F00021FD02C09F5FE8CF3091B8
:1044F000EB003E7F3093EB003091ED003D7F309339
:10450000ED003091EB0031603093EB007093EC00E4
:104510002093ED005093F0002091EE0027FDE5CFB1
:1045200080E008958091E10187FF13C08091E80049
:1045300082FF06C08091E8008B778093E80004C07A
:104540008091E0018111F2CF08958091E0018823EC
:10455000D9F38091E80080FFF8CF8091E8008E7752
:10456000ECCF2091E4003091E50095E6A90120917F
:10457000EC00822F817020FF06C08091E80080FF50
:1045800006C080E008952091E80022FD1AC08091C5
:10459000E001882389F0853089F08091EB0085FD6A
:1045A0000FC02091E4003091E50042175307F9F263
:1045B0009150E1F684E0089582E0089583E0089543
:1045C00081E008950E9450230E945823E0EEF0E01D
:1045D000808181608083E8EDF0E080818F77808347
:1045E00019BCA7EDB0E08C918E7F8C9380818F7E7B
:1045F00080831092DF0108950F931F93CF93DF9371
:104600000E9450230E945823C8EDD0E088818F7704
:10461000888388818068888388818F7D888319BC9E
:104620001092E0011092DC011092DE011092DD0187
:1046300000EE10E0F80180818B7F808388818160AB
:10464000888342E060E080E00E945E22E1EEF0E0DC
:1046500080818E7F8083E2EEF0E0808181608083C4
:10466000808188608083F80180818E7F808388814B
:1046700080618883DF91CF911F910F910895E8EDBC
:10468000F0E080818F7E8083E7EDF0E080818160C3
:10469000808384E082BF81E08093DF010C94FC2260
:1046A000E8EDF0E080818E7F80831092E200089533
:1046B0001092DA001092E10008951F920F920FB647
:1046C0000F9211242F933F934F935F936F937F9398
:1046D0008F939F93AF93BF93EF93FF938091E100EC
:1046E00082FF0BC08091E20082FF07C08091E10051
:1046F0008B7F8093E1000E94771F8091DA0080FF1A
:1047000019C08091D80080FF15C08091DA008E7F9B
:104710008093DA008091D90080FF96C080E189BD46
:1047200082E189BD09B400FEFDCF81E08093E00104
:104730000E94501F8091E10080FF19C08091E2002B
:1047400080FF15C08091E2008E7F8093E20080910F
:10475000E20080618093E2008091D80080628093C3
:10476000D80019BC85E08093E0010E946D1F809104
:10477000E10084FF2BC08091E20084FF27C080E12C
:1047800089BD82E189BD89B5982F917080FFFBCFEB
:104790008091D8008F7D8093D8008091E1008F7E3A
:1047A0008093E1008091E2008F7E8093E20080910F
:1047B000E20081608093E2008091DC01882309F4AB
:1047C00049C084E08093E0010E94711F8091E10064
:1047D00083FF29C08091E20083FF25C08091E10022
:1047E000877F8093E10082E08093E0011092DC01FA
:1047F0008091E1008E7F8093E1008091E2008E7FC6
:104800008093E2008091E20080618093E20042E0C8
:1048100060E080E00E945E228091F00088608093DA
:10482000F0000E94691FFF91EF91BF91AF919F919E
:104830008F917F916F915F914F913F912F910F9049
:104840000FBE0F901F90189519BC1092E0010E94A6
:10485000621F70CF8091E30087FD93E09093E001A9
:10486000B3CF1F920F920FB60F9211242F933F9345
:104870004F935F936F937F938F939F93AF93BF9368
:10488000CF93DF93EF93FF93D091E900DF70809196
:10489000EC00C82FC17080FDC0E81092E900809143
:1048A000F000877F8093F00078940E947524109226
:1048B000E9008091F00088608093F000CD2BCF70EC
:1048C000C093E900FF91EF91DF91CF91BF91AF913C
:1048D0009F918F917F916F915F914F913F912F9118
:1048E0000F900FBE0F901F9018951F93CF93DF93DB
:1048F000CDB7DEB7AA970FB6F894DEBF0FBECDBF17
:1049000081EE91E02091F100FC012193CF01F1E0D3
:10491000893E9F07B9F70E94C71F8091E80083FF77
:104920001EC18091E1019091E2019A3008F017C117
:10493000E92FF0E0EA5AF94D0C94EE25803899F011
:10494000823809F00CC18091E5018F70873008F042
:1049500006C18093E9008091EB0085FB882780F9F0
:104960001092E90006C08091DD019091DE01911165
:1049700082609091E800977F9093E8008093F10027
:104980001092F1008091E8008E77E5C0882309F449
:10499000D3C0823009F0E3C08091E3018111D6C019
:1049A0008091E5018F702FEF280F263008F0D7C0D7
:1049B0008093E9002091EB0020FFC8C0933031F4D0
:1049C0008091EB0080628093EB00C0C09091EB007F
:1049D00090619093EB0021E030E001C0220F8A95B6
:1049E000EAF72093EA001092EA008091EB008860D9
:1049F000EACF8111B4C01091E3011F778091E300E9
:104A00008078812B8093E3008091E800877F8093FA
:104A1000E8000E9492228091E80080FFFCCF809104
:104A2000E30080688093E30082E0111183E08093CB
:104A3000E00195C08058823008F091C08091E30178
:104A40009091E4018C3D23E09207A1F583E08A83F5
:104A50008AE289834FB7F894DE01139620E03EE0A6
:104A600051E2E32FF0E050935700E49120FF03C0A0
:104A7000E295EF703F5FEF708E2F90E0EA30C0F06C
:104A8000C7968D939D932F5F243159F74FBF809127
:104A9000E800877F8093E8006AE270E0CE0101962B
:104AA0000E94A1218091E8008B778093E80057C095
:104AB000C096E7CF6091E5017091E601AE014F5FCE
:104AC0005F4F0E94C520BC01892B09F448C090911A
:104AD000E800977F9093E80089819A810E94FF21E6
:104AE000E1CF8038E1F58091E800877F8093E8008E
:104AF0008091DC018093F10045CF811130C090910D
:104B0000E301923060F58091E800877F8093E800B0
:104B10009093DC010E9492228091DC01882311F0A5
:104B200084E005C08091E30087FDFACF81E08093A7
:104B3000E0010E94B81F13C08091E301813079F435
:104B400081E0933009F080E08093DE011092E9006B
:104B50008091E800877F8093E8000E9492228091F4
:104B6000E80083FF0AC08091E800877F8093E80017
:104B70008091EB0080628093EB00AA960FB6F894C8
:104B8000DEBF0FBECDBFDF91CF911F910895CF93B0
:104B90008091E0018823A1F0C091E900CF7090914D
:104BA000EC00892F817090FD80E8C82B1092E900FD
:104BB0008091E80083FD0E947524CF70C093E900C6
:104BC000CF910895991B79E004C0991F961708F0BA
:104BD000961B881F7A95C9F780950895EE0FFF1FE1
:104BE0000590F491E02D0994F999FECF92BD81BD15
:104BF000F89A992780B50895A8E1B0E042E050E026
:104C00000C942826262FF999FECF92BD81BDF89AE3
:104C1000019700B4021639F01FBA20BD0FB6F89400
:104C2000FA9AF99A0FBE08950396272F0E94032639
:104C30000E940226252F0E940326242F0C9403266F
:104C40000196272F0E9403260C940226DC01CB013B
:104C5000FC01F999FECF06C0F2BDE1BDF89A31968C
:104C600000B40D9241505040B8F70895F894FFCF2A
:104C7000DC10DC10341134118611091109110911ED
:104C8000A2112E123D123D12991209110911A21200
:104C9000FE12FE1207130713091307130713071356
:104CA000FE12FE120E13071307130E139E24C624C2
:104CB000AF25C624AF25F9241A25AF2571257D25FA
:104CC000BA01461E1D1F491EE71EAC1E01909366C9
:104CD000363534F6F7679796F4F59192403622C54B
:0C4CE0000A8F0A6D0A120A2B0A440A000F
:00000001FF
