:100000000C944B050C9492050C9492050C9492055B
:100010000C9492050C9492050C9492050C94920504
:100020000C9492050C9492050C949A230C946E24D3
:100030000C94DD1A0C9492050C9492050C94920584
:100040000C9492050C9492050C9492050C949205D4
:100050000C9492050C944F1B0C9492050C949205F1
:100060000C9492050C9492050C9492050C949205B4
:100070000C9492050C9492050C9492050C949205A4
:100080000C9492050C9492050C9492050C94920594
:100090000C9492050C9492050C9492050C94920584
:1000A0000C9492050C9492050C94920568747470EB
:1000B000733A2F2F716D6B2E666D2F012800514DF5
:1000C0004B206973207468652062657374207468BE
:1000D000696E67206576657221002B00340036005A
:1000E000370013001C000000E000040012000800AC
:1000F00018000C000000E100330014000D000E0099
:100100001B0000002900E200E3002C412C4100000C
:1001100000002A0038000F00150006000A00090040
:1001200028002D001600110017000B0007005200D8
:100130001D0019001A001000050000004F005100BA
:100140005000E7002C000000000035021E021F02D4
:10015000200221022202000001001E001F002000D8
:1001600021002200000001003B003C003D003E0059
:100170003F0000000100010001000100010000003B
:10018000000030002F00270226022502240223024D
:1001900001002E00270026002500240023006A000D
:1001A000440043004200410040000000800069001C
:1001B0008100010001000000000044454255473A1B
:1001C0002064697361626C65642E0A00444542557F
:1001D000473A20656E61626C65642E0A000000007B
:1001E00000000000002A2B28000000000000000092
:1001F000000000000000000029000000002C1E3458
:1002000020212224342627252E362D3738271E1F5D
:10021000202122232425263333362E37381F040588
:10022000060708090A0B0C0D0E0F101112131415F6
:10023000161718191A1B1C1D2F3130232D350405D4
:10024000060708090A0B0C0D0E0F101112131415D6
:10025000161718191A1B1C1D2F3130354C000000C1
:10026000000000000000000000000000000000008E
:10027000000000000000000000000000000000007E
:10028000000000000000000000000000000000006E
:10029000000000000000000000000000000000005E
:1002A000000000000000000000000000000000004E
:1002B000000000000000000000000000000000003E
:1002C000000000000000000000000000000000002E
:1002D000000000000000000000000000000000001E
:1002E000000000000000000000000000000000000E
:1002F00000000000000000000000000000000101FC
:1003000001010101000101010100000000000000E5
:1003100000000000000000010001000101010101D6
:1003200001010101010101010101010101010101BD
:1003300001010101010101010000000101000000B3
:1003400000000000000000000000000000000000AD
:10035000000000000000000001010101000A00256A
:10036000303862003A200025303258000A722F637C
:100370002030313233343536370A000A0025303226
:100380005820006B6579626F6172645F7265706F8F
:1003900072743A20000A0025303258006B65796289
:1003A0006F6172645F7365745F6C65643A20003FCF
:1003B00000433E20004C25640A0074696D65725F3D
:1003C00072656164333228293A202530346C580A2A
:1003D000006B6579626F6172645F69646C653A2075
:1003E00025580A006B6579626F6172645F70726F85
:1003F000746F636F6C3A2025580A00686F73745FDE
:100400006B6579626F6172645F6C65647328293A09
:100410002025580A000A092D205374617475732031
:100420002D0A004743433A20382E332E30204156C0
:10043000522D4C4942433A20322E302E3020415624
:10044000525F415243483A20617672350A004F505C
:1004500054494F4E533A204C55464120455854522A
:10046000414B455920434F4E534F4C4520434F4D30
:100470004D414E4420343039360A004255494C44EF
:100480003A2022302E372E34322D312D6766363603
:100490006232622D646972747922202830313A31D7
:1004A000383A3438204D61722032332032303230C5
:1004B000290A005649443A20307846454544287474
:1004C0002D6D6979616A696D6129205049443A202E
:1004D00030783030303028646F6D627269636B340D
:1004E0003529205645523A203078303030310A00D4
:1004F000444553433A2044766F72616B204F7269D2
:10050000656E746564204D656368616E6963616CD6
:1005100020427265616B74686F7567682052656D03
:10052000616B61626C6520496E7465726573746994
:100530006E6720436F6F6C657374204B6579626FD3
:100540006172640A000A092D2056657273696F6E24
:10055000202D0A000A092D20436F6E736F6C6520F1
:100560002D0A4553432F713A09717569740A000ABF
:10057000092D204D61676963202D0A443A094465BD
:10058000627567204D65737361676520546F676797
:100590006C650A583A094D61747269782044656245
:1005A0007567204D6F646520546F67676C65202DFB
:1005B0002053686F77206B6579707265737365730C
:1005C00020696E206D617472697820677269640AAF
:1005D0004B3A094B6579626F6172642044656275BC
:1005E0006720546F67676C65202D2053686F7720F4
:1005F0006B65797072657373207265706F72740ABF
:100600004D3A094465627567204D6F7573652054D6
:100610006F67676C650A563A0956657273696F6E43
:100620000A533A095374617475730A433A09416372
:1006300074697661746520436F6E736F6C65204DCD
:100640006F64650A46312D4631303A095377697433
:10065000636820746F204C6179657220302D3920D9
:1006600028463130203D204C30290A302D393A09B6
:1006700053776974636820746F204C6179657220C8
:10068000302D390A47524156453A09537769746308
:100690006820746F204C6179657220302028616C6D
:1006A0007465726E617465290A423A094A756D7003
:1006B00020746F20426F6F746C6F616465720A45BD
:1006C00053433A094A756D7020746F20426F6F74FE
:1006D0006C6F616465722028616C7465726E617400
:1006E00065290A453A095072696E74204545505291
:1006F0004F4D2053657474696E67730A42535041BD
:1007000043453A09436C65617220454550524F4D4F
:100710000A000A002575002E6E6B726F3A20000ADF
:10072000002575002E737761705F6261636B736C77
:100730006173685F6261636B73706163653A200027
:100740000A002575002E737761705F6772617665A8
:100750005F6573633A20000A002575002E6E6F5F97
:100760006775693A20000A002575002E737761705D
:100770005F72616C745F726775693A20000A0025C8
:1007800075002E737761705F6C616C745F6C677558
:10079000693A20000A002575002E737761705F7238
:1007A00063746C5F726775693A20000A00257500F2
:1007B0002E737761705F6C63746C5F6C6775693AF8
:1007C00020000A002575002E636170736C6F636BE7
:1007D0005F746F5F636F6E74726F6C3A20000A0013
:1007E0002575002E737761705F636F6E74726F6C26
:1007F0005F636170736C6F636B3A20000A00253091
:100800003258006B65796D61705F636F6E66696702
:100810002E7261773A20000A002575002E6D6F75E3
:1008200073653A20000A002575002E6B6579626FAA
:100830006172643A20000A002575002E6D617472A1
:1008400069783A20000A002575002E656E61626C99
:10085000653A20000A0025303258006465627567E9
:100860005F636F6E6669672E7261773A20000A00D7
:1008700025750064656661756C745F6C617965727D
:100880003A20003F000A6D6F7573653A206F666607
:100890000A000A6D6F7573653A206F6E0A000A6B65
:1008A0006579626F6172643A206F66660A000A6B4E
:1008B0006579626F6172643A206F6E0A000A6D6139
:1008C000747269783A206F66660A000A6D61747204
:1008D00069783A206F6E0A000A64656275673A208B
:1008E0006F66660A000A64656275673A206F6E0A71
:1008F000000A0A4A756D70696E6720746F20626F16
:100900006F746C6F616465722E2E2E2000433E2042
:1009100000436C656172696E6720454550524F4DCA
:100920000A006565636F6E6669673A0A005B735D0E
:10093000004B6579626F6172642073746172742E0A
:100940000A005B575D005B535D005B525D005B44DA
:100950005D005B435D00040330000000160364008B
:100960006F006D0062007200690063006B0034006C
:1009700035000000160374002D006D006900790039
:1009800061006A0069006D00610000000403090451
:1009900009025B00030100A0320904000001030109
:1009A000010009211101000122400007058103080F
:1009B000000A0904010001030000000921110100DF
:1009C000012236000705820320000A090402000202
:1009D0000300000009211101000122220007058304
:1009E000032000010705030320000112011001008C
:1009F000000008EDFE00000100010203010631FFC6
:100A00000974A1010975150026FF0095207508815C
:100A1000020976150026FF00952075089102C00591
:100A2000010980A10185031A81002A8300160100B3
:100A3000260300950175108100C0050C0901A10174
:100A400085041A01002A9C02160100269C029501C9
:100A500075108100C005010906A101050719E029EB
:100A6000E71500250195087501810295017508813A
:100A7000010507190029FF150026FF0095067508D6
:100A80008100050819012905950575019102950157
:100A900075039101C00011241FBECFEFDAE0DEBF65
:100AA000CDBF04B603FE27C08091EB019091EC010D
:100AB000A091ED01B091EE018730904BA740B04B73
:100AC000D1F41092EB011092EC011092ED01109212
:100AD000EE0114BE84B7877F84BF0FB6F894A89543
:100AE00080916000886180936000109260000FBE6A
:100AF000E0E0F8E3099511E0A0E0B1E0EAE3FDE40D
:100B000002C005900D92AC32B107D9F721E0ACE2FA
:100B1000B1E001C01D92AB3EB207E1F70E94BB20DD
:100B20000C9473260C940000FF93EF93E0912C013A
:100B3000F0912D01309709F00995EF91FF910895FB
:100B4000FC018591803011F0EFDFFBCF0895FF2786
:100B5000E0E230E247FF0CC0419597FF09C0EDE2AB
:100B60006095709580959095611D711D811D911DF9
:100B700027FF02C0219530E350E2AA27660F771FB6
:100B8000881F991FAA1FA41710F0A41B63955A95DC
:100B9000A9F7AA3008F0A95FA05DAF93F39561159E
:100BA00071058105910541F7ED3211F4EF93F3954D
:100BB000F21718F43F93F395FBCF8F91B5DFFA95B9
:100BC000E1F70895E991F9918591803021F085321E
:100BD00019F0AADFF9CF089520E0E8945591553235
:100BE000C1F3503311F4689455915A3348F450537B
:100BF00090F3220F022E220F220F200D250FF4CF8B
:100C00000EF4219589919991533619F3533729F1AF
:100C1000533559F1BC0188279927E8945C3621F4B3
:100C20008991999168945591543639F446EF7EF044
:100C300077FF0DC08FEF9FEF0AC055374AE039F0BC
:100C4000583540E121F0523642E009F00895FF9313
:100C5000EF937DDFEF91FF91B7CFFF93EF93FC010F
:100C600081918030B9F360DFFBCFFF93EF9368DFB2
:100C7000F1CFDF93CF93CDB7DEB72596A3DFCF912A
:100C8000DF91089583302DE5920729F084309D454A
:100C900059F081E00895FB0182818823D1F38EEB26
:100CA00090E00E940307F5CFFB018281882389F33E
:100CB0008CEA90E0F6CF08950895089581E00895B4
:100CC0000C9442061F93CF93DF9300D000D00F9275
:100CD000CDB7DEB749835A836B8320915401898154
:100CE0009A8121111BC06623A9F00E944018182F79
:100CF000682F89819A810E94EC1769817A81812FFE
:100D00000F900F900F900F900F90DF91CF911F9148
:100D10000C94C8080E941818182FEFCF0E94401892
:100D200069817A81EDCFFC014081518162817381BB
:100D300084810C9462061F93CF93DF9390E0FC01B3
:100D4000E352FE4F1491FC01E352FD4FD491835ABC
:100D50009D4FFC01C491DD2319F081EE0E942D0FFF
:100D6000CC2319F086EE0E942D0F812F0E94611076
:100D7000CC2319F086EE0E941210DD2331F081EEB3
:100D8000DF91CF911F910C941210DF91CF911F91A1
:100D90000895FF920F931F93CF93DF938C01F62E4C
:100DA000F8018491882349F1E8012196813049F4C2
:100DB000FE011491812F0E942D0F812F0E9412108D
:100DC00006C0823089F4FE0184910E942D0F8E01AD
:100DD0000F5F1F4F8F2D815018F3EFE9FFE0319720
:100DE000F1F700C00000F7CF833019F4FE018491C1
:100DF000E5CF0E949B06E801EACFDF91CF911F91DA
:100E00000F91FF90089560E00C94C9060E94A1190B
:100E1000811102C00E943E1A0C94750B0C94770B42
:100E20000C945D060C94100708950E9494100E9483
:100E300014072FEF84E39CE0215080409040E1F7BD
:100E400000C000000C94731B0F931F93CF93DF938C
:100E50008C010E949306EC01B8010E946006882371
:100E600009F474C0B801CE010E94340D882309F43E
:100E70006DC0C6318CE5D80709F466C188F4C1306D
:100E8000FCE5DF0709F468C028F5C115DC4509F465
:100E900058C0C801DF91CF911F910F910C945E064D
:100EA000CE3DFCE5DF0709F46DC078F4CC3DECE500
:100EB000DE0709F46EC0CD3DDC4559F7F8018281AB
:100EC000882309F443C082E069C0CE018A5F9C4553
:100ED0000997F8F6F80182818823D9F20E94A119B6
:100EE000811102C00E943E1A0E94B4199093DD0144
:100EF0008093DC01C031FCE5DF0709F4F4C008F0A1
:100F000087C0C830ECE5DE0709F4DDC008F05CC03E
:100F1000C4308CE5D80709F4CEC008F042C0C23016
:100F2000FCE5DF0709F4BFC0C330DC4509F4BFC0EE
:100F30008091DC019091DD010E94C2190E94941001
:100F400005C0F801828181110E94150780E0DF91C0
:100F5000CF911F910F910895F80182818823B1F3F9
:100F60009091C701892F8E7F90FF81608093C70188
:100F700080FF05C08CEC91E00E94A005E7CF8AEBD2
:100F800091E0FACFF8018281882301F30E943E1A92
:100F9000DDCFF80182818823C9F280E00E946221BE
:100FA000D5CF8091DC018061C630ECE5DE0709F425
:100FB00047C08091DC018860C730DC4508F440C040
:100FC0008091DC0180623CC0CC308CE5D80709F40C
:100FD00082C068F48091DC018C60CA30FCE5DF07D8
:100FE00079F108F474C08091DC018E7F29C0809172
:100FF000DC01877FCE30ECE5DE0711F18091DC016A
:101000008B7FCF30DC45E0F08091DC018F7E18C013
:10101000CB3F8CE5D80709F452C030F5C331FCE56D
:10102000DF0709F468C078F4C131ECE5DE0709F4A4
:101030005EC08091DC018F77C231DC4509F078CF4A
:101040008093DC0175CFC5318CE5D80709F45BC00E
:1010500008F46FC08091DD018160CA3FDC4509F072
:1010600067CF8093DD0164CFCF3F8CE5D80709F4CB
:1010700046C060F48091DD018D7FCD3FFCE5DF0748
:1010800081F368F18091DD018360EBCFC130EDE544
:10109000DE0709F455C008F442C0C230DD4509F04E
:1010A00047CF80E04EC08091DC018160C9CF809144
:1010B000DC018260C5CF8091DC018460C1CF80916A
:1010C000DD018260CECF8091DC018064B9CF809158
:1010D000DC018068B5CF8091DC018D7FB1CF80913C
:1010E000DD018E7FBECF8091DC018F7DA9CF809105
:1010F000DC018F7BA5CF8091DC01837FA1CF809124
:10110000DD018C7FAECF8091DC0182FB992790F9C5
:1011100021E0922790FB82F990FB83F991CF809197
:10112000DD01982F909591708E7F892B90FB81F92E
:1011300098CF9091DC01892F97FB87F9805880CF59
:1011400081E00E94401AF4CE0E94D518F8019281E5
:10115000992381F08A7A91E009F490E090932E012E
:10116000811106C089E20E94B0180E942119EECEBA
:1011700085E3F9CF80912E01811104C089E20E949C
:10118000B718F3CF85E3FBCF90E080E00895089592
:10119000972F70E027E0929F600D711D1124FB01D5
:1011A00098E3899FE00DF11D1124EE0FFF1FE65219
:1011B000FF4F859194910895FC01EE0FFF1FE35AB4
:1011C000FC4F859194910895CF93DF930E94C808B6
:1011D0000E949B0AEC01811520E5920708F042C0AD
:1011E000811530E4930708F014C1883E910528F575
:1011F000803E910508F0A0C0883A910588F4853AB0
:10120000910508F08FC08130910509F495C00097D1
:1012100009F492C0049708F08FC0D0E0C0E08CC001
:101220008F3B910508F48CC0805C9109C03CD105CE
:10123000A0F30E94DC08EC017FC08115904250F4BD
:10124000C11581E0D80708F077C0C03FD10528F369
:10125000D06572C0C11590E3D90708F0D0C0CE01A7
:101260009F70E7CF811525E5920758F5811534E584
:10127000930708F0FDC0811542E5940750F4C115AD
:1012800081E5D80708F4C8C0DC2FCC27C16FD06A2D
:1012900053C0982F969596959E0123703327C115BC
:1012A000D34508F0D6C0C1E0D0E002C0CC0FDD1FAE
:1012B0002A95E2F720E2929FC0011124C82BD92B76
:1012C000C6C0C11589E5D807A8F4C11598E5D907A6
:1012D00008F0D3C0C11526E5D20708F09ECF8C2FA9
:1012E0000E94320BC82FD0E0DC2FCC27CC27DF7137
:1012F000D06222C0C1153AE5D30708F4C3C0CE01BD
:1013000090568115904208F088CF8D2F8F710E94E2
:10131000320B90E0982F882788279F719C012C2BF7
:10132000E901E6CF853A910509F4BAC0863A9105FC
:1013300009F0B9C0C2E8D0E4CE01DF91CF910895A1
:10134000883A910509F4B2C0893A910509F4B1C00F
:101350008A3A910509F4B0C08B3A910509F4AFC0FF
:101360008C3A910509F4AEC08B3B910509F4ADC0F0
:101370008C3B910509F4ACC08D3A910509F4ABC0E2
:10138000803B910509F4AAC08E3A910509F4A9C0E1
:101390008F3A910509F4A8C0813B910509F4A7C0D3
:1013A000823B910509F4A6C0833B910509F4A5C0D1
:1013B000843B910509F4A4C0853B910509F4A3C0C1
:1013C000863B910509F4A2C0873B910509F4A1C0B1
:1013D000883B910509F4A0C0893B910509F49FC0A1
:1013E0008D3B910509F49EC08E3B910509F49DC08B
:1013F0008A3B910509F49CC0C0E0D4E49DCFCE01A6
:101400009927D3FF03C0EC01D86C96CFEC01D06CC8
:1014100093CFDF70D06A90CFCE01E4E096958795A8
:10142000EA95E1F783702C2F26952695237090E29C
:10143000299F90011124382B8C2F8370C1E0D0E0BC
:1014400002C0CC0FDD1F8A95E2F7C22BD32BDC68DC
:1014500073CFC1E0D0E002C0CC0FDD1F2A95E2F7C8
:1014600030E2939FC0011124C82BD92BDA6864CFD6
:10147000D82FCC27C46FD06A5FCFDC2FCC27C06FAA
:10148000D06A5ACF8C2F8F700E94320B34E0D695E1
:10149000C7953A95E1F7CF709C2FEC01D0694CCFFE
:1014A000C1E8D0E449CFC3E8D0E446CFC2EED4E4EB
:1014B00043CFC9EED4E440CFCAEED4E43DCFC5EB70
:1014C000D4E43ACFC6EBD4E437CFC3EBD4E434CF83
:1014D000C4EBD4E431CFC7EBD4E42ECFCCECD4E4CE
:1014E0002BCFCDECD4E428CFC3E8D5E425CFCAE890
:1014F000D5E422CFC2E9D5E41FCFC4E9D5E41CCF9F
:10150000C1E2D6E419CFC3E2D6E416CFC4E2D6E4F2
:1015100013CFC5E2D6E410CFC6E2D6E40DCFC7E2C2
:10152000D6E40ACFCFE6D4E407CFC0E7D4E404CFB3
:10153000CAE2D6E401CF82389105B1F1B0F481332B
:10154000910509F475C048F48932910509F469C020
:101550008A32910509F473C008958533910509F421
:1015600059C08933910501F10895833E9105A9F190
:1015700038F4803E9105F9F0823E910549F10895D5
:10158000863E9105A9F1873E9105C9F1843E9105FA
:1015900019F52091DD0121FF1FC08091DC0184FD40
:1015A00014C087EE90E008952091DC012370A1F033
:1015B00080EE90E008952091DC0120FD47C030913D
:1015C000DD0130FF09C024FF44C090E080E004C08A
:1015D0002091DC0122FDF7CF08952091DC0122FD4E
:1015E0003BC03091DD0130FDE3CF24FFF5CFEDCFDF
:1015F0002091DC0123FFF0CF24FDE7CFD2CF209153
:10160000DC0123FD2CC03091DD0131FFEECF84EEF3
:1016100090E008952091DC0125FFDECF89E290E083
:1016200008952091DC0125FFD7CF85E390E0089550
:101630002091DC0126FFD0CF8AE290E0089520912E
:10164000DC0126FFC9CF81E390E0089589E390E0B3
:10165000089583EE90E0089582EE90E0089586EE7E
:1016600090E008959091DC0192FF06C0282F287128
:101670002830F9F4877F846093FF06C0282F2871F3
:101680002831F1F4877E84612091DD0120FF06C0BE
:10169000382F38713830D9F4877F816021FF06C038
:1016A000282F28712831D1F4877E816194FD877EAF
:1016B0000895282F24712430F9F68B7F8860DCCFC1
:1016C000282F2471243101F78B7E8861DDCF382FDC
:1016D0003171313019F78E7F8860E0CF282F21716A
:1016E000213121F78E7E8861E1CF0C945B060C944A
:1016F0005C06E82FF0E0E15DFE4F80810895CF9217
:10170000DF92EF92FF920F931F93CF93DF938CE6BC
:1017100093E00E94A0058FE2E82E81E0F82ED0E051
:10172000C0E097E6C92E93E0D92E0FE513E0DF93D2
:10173000CF93DF92CF920E94390684E693E00E9415
:10174000A005F70181917F010E9489191F928F9353
:101750001F930F930E9439068DE593E00E94A00528
:1017600021968DB79EB708960FB6F8949EBF0FBE10
:101770008DBFC830D105D9F6DF91CF911F910F9160
:10178000FF90EF90DF90CF900895A4E1B1E061E089
:1017900070E08D91E82FE295EF70F0E041A18F703D
:1017A0009B0101C0220F8A95EAF7922F909594230E
:1017B00091A382A1822B82A381E0AC31B80749F7C3
:1017C000ADE0B1E061E070E08D91E82FE295EF705F
:1017D000F0E041A18F709B0101C0220F8A95EAF7CA
:1017E000922F9095942391A382A1822B82A381E0D2
:1017F000A431B80749F7E7E3F1E0AFE2B1E08FE3E6
:1018000091E011921D928E179F07D9F788E00E94F0
:10181000910C0C9406077F928F929F92AF92BF9289
:10182000CF92DF92EF92FF920F931F93CF93DF93AC
:1018300027E331E004E111E0712CEE24E394F12C74
:10184000E901B9909E01DE011E92F80181918F019C
:10185000E82FE295EF70F0E091A18F70B70101C021
:10186000660F8A95EAF7892F862B81A382A1A62E7F
:10187000A0948A2182A380EA8A95F1F78DE0C82E90
:1018800081E0D82E50E040E0E60189906E01882D7D
:1018900082958F7090E0EC0188A19C9090E0D82D0B
:1018A000DF7002C095958795DA95E2F780FD37C025
:1018B0008E2D042E01C0880F0A94EAF789298C9393
:1018C0004F5F5F4F47305105F9F681A18A2181A30F
:1018D00082A1682B62A381E09C919B1101C080E0F2
:1018E000782AD1E02F333D0709F0AACF272D48E011
:1018F0006FE271E087E391E00E94920C0E940E0774
:10190000872DDF91CF911F910F91FF90EF90DF9086
:10191000CF90BF90AF909F908F907F90089580E080
:10192000CDCF0895FF920F931F93CF93DF93F82E9F
:10193000092F162FD72FC42F222349F081E080933F
:1019400041010E940D1B9093400180933F018091C3
:1019500041018823A1F080913F01909140010E94B4
:10196000251B069760F0EF2DF02FA12FBD2FCE0F76
:10197000DF2FD11DEC17FD0741F410924101DF91DB
:10198000CF911F910F91FF90089581918D93F2CF88
:101990000F931F93CF93DF93C62FD42F022FFC01F9
:1019A00082818823C9F0609344010E940D1B9093AB
:1019B00043018093420180E28C0F883008F04FC0D1
:1019C000C77081E001C0880FCA95EAF7DF91CF9117
:1019D0001F910F910C94741010914401161334C090
:1019E00080914201909143010E94251B059760F56B
:1019F000C0E2CD0F1D17B9F080E2810F883040F4AE
:101A0000177081E001C0880F1A95EAF70E947B10D9
:101A1000C83048F481E09D2F977001C0880F9A95D7
:101A2000EAF70E947410802F0E946110C830B8F449
:101A3000D77081E001C0880FDA95EAF7DF91CF9186
:101A40001F910F910C947B1080E28C0F883038F43A
:101A5000C77081E001C0880FCA95EAF7EFCFDF9128
:101A6000CF911F910F9108959C01CB01233F4CE52D
:101A7000340731F190F4283DFCE53F07E9F0293DBA
:101A80004CE5340769F1273D3C4579F426E241EE07
:101A900061EE0E94C80C80E00895253FFCE53F07F9
:101AA000B9F090F0263F3C45B9F0FC0182818823D3
:101AB000D1F010924401089527E245EE65EEE9CF9A
:101AC00026E241EE60EEE5CF27E245EE64EEE1CF9F
:101AD00026E241EE62EEDDCF27E245EE66EED9CF9B
:101AE00028E241E0EBCF81E0089590934A01809392
:101AF00049010895E0914901F0914A01309721F0A0
:101B00000190F081E02D099480E00895EF92FF921A
:101B10000F931F93CF93DF938C01E0914901F091D4
:101B20004A013097C1F10280F381E02D099580913F
:101B3000C70182FF30C080FF04C083E893E00E94A9
:101B4000A005D0E0C0E08DE7E82E83E0F82E80917C
:101B5000C70180FF0EC0F801EC0FFD1F80811F92AE
:101B60008F93FF92EF920E9439060F900F900F9083
:101B70000F902196C830D10551F78091C70180FFA1
:101B80000AC08BE793E0DF91CF911F910F91FF90F7
:101B9000EF900C94A005DF91CF911F910F91FF90D2
:101BA000EF90089520914701309148012817390797
:101BB00071F09093480180934701E0914901F091C1
:101BC0004A01309721F00680F781E02D09940895AD
:101BD00020914501309146012817390771F0909303
:101BE000460180934501E0914901F0914A01309707
:101BF00021F00084F185E02D0994089585B780686F
:101C000085BF85B7806885BF0895089508950C94B1
:101C1000050E08950C94090E0E94FE0D0E94060EFA
:101C20000C94070E81E008950E94041B0E94C50BCE
:101C30000E94971B0C940A0ECF93C82F8091C70166
:101C400082FF1EC080FF1CC08CE993E00E94A005AB
:101C50008091C70180FF14C01F92CF9387E993E062
:101C60009F938F930E9439068091C7010F900F9028
:101C70000F900F9080FF04C085E993E00E94A005BB
:101C80008C2FCF910C941207BF92CF92DF92EF92DC
:101C9000FF920F931F93CF93DF93CDB7DEB72A97B1
:101CA0000FB6F894DEBF0FBECDBF0E940B0C0E9492
:101CB000120E882309F46FC08CE4C82E81E0D82E60
:101CC00010E000E0B02E802F0E94790BE82EF60184
:101CD000F1906F01F81609F458C08091C70181FD99
:101CE0000E947F0B90E080E0FE242F2D30E0482FF3
:101CF000B901082E02C0759567950A94E2F760FF56
:101D00003FC08E83BF8281E090E06C0102C0CC0CAA
:101D1000DD1C4A95E2F72E2D30E02C213D21232BAE
:101D200009F480E088870E940D1B8160782F9A87D4
:101D300089874E815F8168858A850E94EC0EF80153
:101D4000E45BFE4F80818C2580830E947A0D909108
:101D50004B01891789F10E947A0D80934B012A96D5
:101D60000FB6F894DEBF0FBECDBFDF91CF911F91AC
:101D70000F91FF90EF90DF90CF90BF900C941C0ECE
:101D800001968730910509F0B2CF0F5F1F4F0830E1
:101D9000110509F097CF8FEF89838A831B820E94F8
:101DA0000D1B8160782F9D838C8349815A816B81C3
:101DB0008D810E94EC0EC9CF2A960FB6F894DEBF33
:101DC0000FBECDBFDF91CF911F910F91FF90EF908C
:101DD000DF90CF90BF900895CF93DF93CDB7DEB75C
:101DE0002B970FB6F894DEBF0FBECDBF4F83588739
:101DF00069877A878B878A859B85892B21F0852F38
:101E000084238F3FD9F41E821D8285E0FE01379620
:101E1000DE01119601900D928A95E1F749815A8170
:101E20006B817C818D819E812B960FB6F894DEBFED
:101E30000FBECDBFDF91CF910C94CC158091550191
:101E40009091560101969093560180935501DBCFF6
:101E5000FC01808191810C948218CF93C82F882334
:101E600009F4DEC08238C1F40E947A0D81FDD8C029
:101E700089E30E94B0180E9421192FEF81EE94E0AF
:101E8000215080409040E1F700C0000089E30E94AB
:101E9000B718CF910C9421198338A1F40E947A0DC0
:101EA00080FDBEC083E50E94B0180E9421192FEF6B
:101EB00081EE94E0215080409040E1F700C00000A6
:101EC00083E5E5CF8438A1F40E947A0D82FDA8C095
:101ED00087E40E94B0180E9421192FEF81EE94E050
:101EE000215080409040E1F700C0000087E4CFCF50
:101EF0008CEF8C0F813A48F48C2F0E94401E811188
:101F00008FC08C2F0E94B018C4CF80E28C0F883015
:101F100048F4C77081E001C0880FCA95EAF70E94B3
:101F2000D818B7CF8BE58C0F833068F481E890E048
:101F3000C53A31F083E890E0C63A11F482E890E0C7
:101F4000CF910C94D20D88E58C0F873108F068C0D2
:101F500082EE90E0C83A09F460C089EE90E0C93A98
:101F600009F45BC08AEE90E0CA3A09F456C085EBEA
:101F700090E0CB3A09F451C086EB90E0CC3A09F4FA
:101F80004CC083EB90E0CB3B09F447C084EB90E07E
:101F9000CC3B09F442C087EB90E0CD3AF1F18CECF8
:101FA00090E0C03BD1F18DEC90E0CE3AB1F183E806
:101FB00091E0CF3A91F18AE891E0C13B71F182E979
:101FC00091E0C23B51F184E991E0C33B31F181E200
:101FD00092E0C43B11F183E292E0C53BF1F084E270
:101FE00092E0C63BD1F085E292E0C73BB1F086E2D9
:101FF00092E0C83B91F087E292E0C93B71F08FE636
:1020000090E0CD3B51F080E790E0CE3B31F090E0A6
:1020100080E0CA3B11F48AE292E0CF910C94E80D83
:10202000CF910895882309F44BC0823871F40E943F
:102030007A0D81FF45C089E30E94B0180E942119E2
:1020400089E30E94B7180C942119833859F40E942F
:102050007A0D80FF35C083E50E94B0180E942119D7
:1020600083E5EFCF843859F40E947A0D82FF28C0AF
:1020700087E40E94B0180E94211987E4E2CF9CEF08
:10208000980F913AF0F290E2980F983050F48770E0
:1020900091E001C0990F8A95EAF7892F0E94DE1816
:1020A000D2CF9BE5980F933020F490E080E00C9421
:1020B000D20D885A873120F490E080E00C94E80D2E
:1020C0000895CF93C82F0E942D0FC93349F42FEFE5
:1020D00087EE93E0215080409040E1F700C000007F
:1020E0008C2FCF910C941210882321F00E94D818C5
:1020F0000C9421190895882321F00E94DE180C9475
:10210000211908950E94F5180E9405190E942119AD
:1021100090E080E00E94D20D90E080E00C94E80D09
:102120000E94BE180C9482100E94E5180C94901026
:10213000E92FE295EF70E250EE3070F4F0E0EB58EA
:10214000F94D0C942B26803F19F020F4883E20F4A2
:1021500081E00895843FE1F380E00895883EC0F374
:10216000813FD1F7F5CF93FB882780F908950E942E
:1021700082180C9498104F925F926F927F92BF9248
:10218000CF92DF92EF92FF920F931F93CF93DF9343
:102190006C01EB01FC01058102950F701281111198
:1021A0000E94F5180E94CE18E82E882371F01123A2
:1021B000B1F080E28C0F883090F082E00E946C19C0
:1021C0000E94CE1891E0E82EE926BD2EB2942FE0B1
:1021D000B222EB2DF0E0ED57F94D0C942B26E12CBB
:1021E000F4CFFD2FFF70FF2E8D2F807F19F0F2941A
:1021F00090EFF9221123A9F0FF2059F080E28C0F13
:10220000883010F0C11109C08F2D0E94D8180E948B
:1022100021198C2F0E942D0F14C08F2D0E94E818B9
:10222000F6CF8C2F0E941210FF2059F080E28C0F05
:10223000883010F0C11138C08F2D0E94DE180E9426
:102240002119EB2DE850FF0B349720F40E947A0DF2
:102250000E941207CE010E9498108111A4C1109211
:10226000560110925501EE2009F4AFC10E94CA1820
:1022700080FDABC1F60112820E94C4180E94501763
:10228000C6010E94F3120E94C418DF91CF911F91E2
:102290000F91FF90EF90DF90CF90BF907F906F9065
:1022A0005F904F900C9471178F2D0E94EE18C7CF3E
:1022B0002D2F2F70F22E8D2F807F803219F0F29407
:1022C00080EFF822CC2369F0C13049F1112391F15C
:1022D000002351F1F601858180FF9BCF8F708583AC
:1022E00023C0112381F0011106C00E9408198F2913
:1022F0000E947410A6CF0130C1F70E9408198F29DF
:102300000E940E199ECF011106C00E9417198F2D31
:102310000E947B1096CF013009F493CFF6CF1123A2
:1023200029F0063008F08DCF8F2DE2CF053008F070
:1023300088CFEDCF002359F3C93349F4FFEF27EEDF
:1023400033E0F15020403040E1F700C000008C2F16
:102350000E94121076CF8D2F86958695837061F03E
:10236000813009F06ECFCE019370111102C090E060
:1023700080E00E94E80D65CFCE019370111102C07C
:1023800090E080E00E94D20D5CCF8D2F837009F029
:1023900043C0111156CF2C2F229526952770220F5E
:1023A000220F6C2F6F70462E512C712C612C022E37
:1023B00004C0440C551C661C771C0A94D2F760E0DC
:1023C00070E0CB01C4FF0FC06FE070E080E090E0F0
:1023D00004C0660F771F881F991F2A95D2F7609552
:1023E0007095809590952D2F2695269523706429BC
:1023F000752986299729223049F058F4213019F09F
:102400000E9402171ECF0E94F0161BCF0E941417C5
:1024100018CF0E94EE1615CF8695112311F08D2F3F
:102420008170882309F40DCF2C2F229526952770D3
:10243000220F220F6C2F6F70462E512C712C612CA5
:10244000022E04C0440C551C661C771C0A94D2F75B
:1024500060E070E0CB01C4FF0FC06FE070E080E08F
:1024600090E004C0660F771F881F991F2A95D2F746
:1024700060957095809590952D2F269526952370C3
:102480006429752986299729223049F058F421308A
:1024900019F00E94C717D5CE0E94B517D2CE0E9460
:1024A000D917CFCE0E942A17CCCE8D2F8F70F82E41
:1024B000112321F00E9450178C2F1ACF8C2F0E94CD
:1024C0007B108F2D0E947117BCCEC23F99F160F432
:1024D000C03FD9F0C13F39F1112309F444C00111C3
:1024E00098CE8D2F8F7123C0C33F49F1C43FA1F710
:1024F000112379F19D2F9F71F92E892F0E9450177A
:1025000063E08F2D0E9457199CCE112341F00530B6
:1025100008F097CE8D2F8F710E94941792CE0630BF
:1025200008F08FCEF7CF8D2F8F71112359F20E94B3
:10253000501787CE8D2F8F711123C9F3C3CF11236D
:1025400029F08D2F8F710E943B177BCE0E9436178A
:1025500078CE81E00E946C19023008F472CE82E0DD
:102560000E946C196ECE002359F0C93309F0EFCEEA
:10257000EFEFF7EE23E0E150F0402040E1F7E5CE49
:102580008D2F8F719FCF4D2F4F706C2FC6010E94E2
:10259000C4080E94661655CE4D2F4F706C2FC60191
:1025A0000E94C7084ECE112319F0011158CE5BCE00
:1025B000011155CE8091550190915601029709F075
:1025C0004ECE8C2F0E9461104ACEDF91CF911F9189
:1025D0000F91FF90EF90DF90CF90BF907F906F9022
:1025E0005F904F9008950F931F93CF93DF93EC016B
:1025F0008B819C81892B29F08881998189238F3F48
:1026000029F4DF91CF911F910F910895CE010E947F
:1026100024078823B1F3688179818A810E948C180C
:102620008C010E94EB170E94ED16B801CE01DF91DC
:10263000CF911F910F910C94BB10CF93DF9300D0DB
:1026400000D00F92CDB7DEB70F900F900F900F9084
:102650000F90DF91CF910895CF93DF9300D000D0FA
:1026600000D0CDB7DEB726960FB6F894DEBF0FBE0A
:10267000CDBFDF91CF9108951F93CF93DF93C0918A
:10268000570116E0809158018C1304C0DF91CF915F
:102690001F910895D0E01C9FF0011D9FF00D1124A3
:1026A000E75AFE4F40815181628173818481958117
:1026B0000E942C132196C770E5CF4091890150915B
:1026C0008A0160918B0170918C0180918D019091B4
:1026D0008E010C942C13209157019091580156E0D3
:1026E000291302C080E0089530E0529FF001539F0B
:1026F000F00D1124E75AFE4F7181761306C07081E8
:10270000781303C07281741304C02F5F3F4F27708A
:10271000E7CF81E008951F93CF93DF9380918E01DF
:10272000807FC1F480918B018823A1F080915701B3
:10273000C09158016091890170918A0140918C018A
:1027400050918D01D62FD723DA01A095B09516E0D0
:10275000C81304C0DF91CF911F91089590E04115F7
:10276000510511F0DF3F31F401968770F1CF2A0F48
:102770003B1F17C0189FF001199FF00D1124E75A55
:10278000FE4F21812713F0CF20812613EDCF228128
:102790002111EACF238134812417350740F3241B0C
:1027A000350B2530310500F720918E012F70206107
:1027B00020938E0126E0289FF001299FF00D11241F
:1027C000E25AFE4F80818F708061808389E891E0BA
:1027D0000E94F312DF91CF911F910C943C139F92B2
:1027E000AF92BF92CF92DF92EF92FF920F931F931F
:1027F000CF93DF93CDB7DEB761970FB6F894DEBF06
:102800000FBECDBF8C0185E0F801DE011D96019061
:102810000D928A95E1F7D801DC901196EC90119712
:102820001296CC90129780918C0190918D01009717
:1028300009F490C12091890130918A01422F4323EC
:102840004F3F09F487C11396AD90BC9090908B01D7
:10285000992009F421C1A816B906D8F1F501E81BA1
:10286000F90BCF01FF24F394059708F0F12C809128
:102870008E01982F907FFF2009F4C7C091118EC060
:10288000FC2C3E112BC02D1129C0C11027C08F7008
:10289000806180938E010E945D1389E891E00E941F
:1028A000F31280918E01D80115968C938F2D61962D
:1028B0000FB6F894DEBF0FBECDBFDF91CF911F9151
:1028C0000F91FF90EF90DF90CF90BF90AF909F90CF
:1028D0000895809590958A0D9B1DC4CFA114B104D5
:1028E00029F08E2D8D218F3F09F053C180E080FFAC
:1028F00016C04C2D6E2D8D2D0E946B13882379F000
:1029000089E891E00E94F31286E0E9E8F1E0DF0156
:102910001D928A95E9F70E945D13F12CC7CFAB2871
:1029200029F08E2D8D218F3F09F030C180E0B82F26
:10293000B170AB2E80FF29C04C2D6E2D8D2D0E94C5
:102940006B13B82E811121C0DD86EE868D859E85A4
:102950000E948218292F22952F70223050F02430A7
:1029600078F49F7051F0F8019581907F31F4FB2C41
:102970009DCF9F7011F08823D1F3805E8830B8F32B
:10298000C8010E94F312BA2CF2CFCC2009F48ECFEA
:1029900080918E01816080938E01BFCF3E1106C071
:1029A0002D1104C0D801CC2009F49BC0DD86EE8631
:1029B0008D859E850E94B710882319F1CC2009F1DE
:1029C00080918E01803270F02091890130918A01CE
:1029D00038872F831986BB86AA868C87CE010796F7
:1029E0000E94F31286E0F801A9E8B1E001900D928F
:1029F0008A95E1F70E948B130E945D13FF24F394E4
:102A000055CFC8010E94F312F9CF911115C07A2D4C
:102A1000B98AA88A4D2D5E2D6C2D89890E941D13BF
:102A200089E891E00E94F31286E0E9E8F1E0DF0135
:102A30001D928A95E9F762C03E1112C02D1110C097
:102A4000C1100EC0F8018583C8010E94F312E9E8A5
:102A5000F1E086E0DF011D928A95E9F7F92C26CF97
:102A6000DD86EE868D859E850E94B710882349F20B
:102A7000CC2039F280918E01803208F4B3CF2091BE
:102A8000890130918A013A8329831B82BD82AC82FD
:102A90008E83CE010196A4CFA816B90690F1F50158
:102AA000E81BF90BCF01F12C059708F049C0FC2C6D
:102AB000CC2009F4A6CF3E1132C02D1130C0809138
:102AC0008E0180FD23C0982F907F01F1D8011596CB
:102AD0008C931597903F39F0982F907F905F8F706F
:102AE000892B15968C93C8010E94F31286E0F80199
:102AF000A9E8B1E001900D928A95E1F70E945D137B
:102B0000D5CE809590958A0D9B1DCDCF86E0F8019E
:102B1000A9E8B1E001900D928A95E1F7C7CEDD8674
:102B2000EE868D859E850E94B71081115BCF8091C6
:102B30008E01816080938E01C8010E94F312B6CE8F
:102B40007A2DB98AA88A4D2D5E2D6C2D89890E9417
:102B50001D136ACFCC2009F454CFDD86EE868D8517
:102B60009E850E94B710F82E882309F44ACF86E08C
:102B7000F801A9E8B1E001900D928A95E1F789E8A2
:102B800091E00E94280F0E948B13B8CF81E08C2522
:102B9000CECE81E08C25ABCE1F93CF93DF93CDB704
:102BA000DEB72C970FB6F894DEBF0FBECDBF4F83B4
:102BB000588769877A878B879C87CE0107960E9402
:102BC000EF13882369F08A859B85892B39F04F8123
:102BD0005885842F85238F3F09F071C016E05FC0B0
:102BE00086E0FE013796DE01119601900D928A95DE
:102BF000E1F78A859B85892B89F388859F818923C5
:102C00008F3F61F32091580130E0C9010196877030
:102C10009927409157014817190671F40E949410A2
:102C2000109258011092570186E0E9E8F1E0DF01C7
:102C30001D928A95E9F7D2CF96E0929FD001939F9B
:102C4000B00D1124A75ABE4FFE01319601900D928E
:102C50009A95E1F7809358010E943C13BFCF819F62
:102C6000C0011124875A9E4F0E94EF138823E9F078
:102C7000E09157011E9FF0011124E75AFE4F408159
:102C8000518162817381848195810E942C1380918E
:102C9000570190E0019687709927809357018091A2
:102CA0005701909158018913DACF2C960FB6F894FA
:102CB000DEBF0FBECDBFDF91CF911F910895698513
:102CC0007A858B859C850E942C1388CFEF92FF928A
:102CD0000F931F93CF93DF938C01892B81F0F12CFD
:102CE000EE24E394E8012196F8018491843770F48E
:102CF000843008F05FC08130B1F08230A1F1DF9103
:102D0000CF911F910F91FF90EF900895853709F4AF
:102D10004CC008F43DC09CE7980F903780F78F7740
:102D20000E94121049C00E5F1F4FFE01849190E275
:102D3000980F983060F48770FE2D01C0FF0F8A95C0
:102D4000EAF78F2F0E94F8180E94211902C00E94F2
:102D50002D0F8F2D815030F2EFE9FFE03197F1F721
:102D600000C00000F7CF0E5F1F4FFE01849190E27C
:102D7000980F983050F48770FE2D01C0FF0F8A9590
:102D8000EAF78F2F0E94FE18DFCF0E941210E1CFCA
:102D90000E5F1F4FFE01C491C150D8F28FE99FE032
:102DA0000197F1F700C00000F7CF0E5F1F4FFE0143
:102DB000F490CFCF0E942D0F8E01CBCF08950C94AD
:102DC000DE160E94DF166093B6017093B701809300
:102DD000B8019093B9010C94821008950C94E116F7
:102DE0000F931F930091B6011091B7012091B80184
:102DF0003091B901602B712B822B932B1F910F9176
:102E00000C94E1160F931F930091B6011091B70136
:102E10002091B8013091B90160237123822393235B
:102E20001F910F910C94E1160F931F930091B6011F
:102E30001091B7012091B8013091B9016027712735
:102E4000822793271F910F910C94E1160C94DE16A4
:102E50000C9426170E9428176093B2017093B30157
:102E60008093B4019093B5010C94821060E070E0FF
:102E7000CB010C942A170F931F9341E050E060E0C0
:102E800070E08A019B0104C0000F111F221F331F35
:102E90008A95D2F7C901B8011F910F910C942A1796
:102EA0000F931F9341E050E060E070E004C0440FD6
:102EB000551F661F771F8A95D2F78091B2019091B6
:102EC000B301A091B401B091B5018A019B01082B17
:102ED000192B2A2B3B2BC901B8011F910F910C9480
:102EE0002A170F931F9341E050E060E070E004C0A8
:102EF000440F551F661F771F8A95D2F7CB01BA0181
:102F000060957095809590950091B2011091B301F4
:102F10002091B4013091B501602371238223932362
:102F20001F910F910C942A170F931F9341E050E0CB
:102F300060E070E004C0440F551F661F771F8A953C
:102F4000D2F78091B2019091B301A091B401B091F8
:102F5000B5018A019B01082719272A273B27C901A8
:102F6000B8011F910F910C942A170F931F93009192
:102F7000B2011091B3012091B4013091B501602BE1
:102F8000712B822B932B1F910F910C942A170F9367
:102F90001F930091B2011091B3012091B4013091BF
:102FA000B50160237123822393231F910F910C9409
:102FB0002A170F931F930091B2011091B301209132
:102FC000B4013091B50160277127822793271F91A3
:102FD0000F910C942A17089527E0929F800D1124D9
:102FE000982F977041E001C0440F9A95EAF78695B3
:102FF0008695869595E0899FF0011124E157FE4F53
:1030000090E080E070E05191DF0111979B01082E64
:1030100002C0369527950A94E2F72170219525275D
:10302000242325272C9301968530910561F7089577
:1030300027E0929F800D1124982F97708695869592
:10304000869525E0829FF0011124E157FE4F50E064
:1030500040E080E0219130E0092E02C036952795AE
:103060000A94E2F721703327042E01C0220F0A943C
:10307000EAF7822B4F5F5F4F4530510559F70895AE
:10308000BF92CF92DF92EF92FF920F931F93CF9355
:10309000DF938C01C090B201D090B301E090B401F5
:1030A000F090B5018091B6019091B701A091B8015F
:1030B000B091B901C82AD92AEA2AFB2ACFE1D0E087
:1030C000BC2ED701C6010C2E04C0B695A7959795C6
:1030D00087950A94D2F780FD0EC0219788F7B12C0E
:1030E0008B2DDF91CF911F910F91FF90EF90DF908B
:1030F000CF90BF900895B8018C2F0E94E4080197EB
:1031000061F3EECFCF93DF93EC010E944018BE0134
:10311000DF91CF910C94E4081F93CF93DF93EB01E1
:1031200090915401992331F0CB01DF91CF911F9100
:103130000C948218882379F0CB010E944018182F34
:10314000682FCE010E94EC17BE01812FDF91CF9135
:103150001F910C94E408CB010E941818182FF4CF8B
:10316000682F80910001909101010C947E1A682FC4
:1031700080910001909101010C94801A80910001CE
:10318000909101010C94821A8091BA0185958595E0
:10319000859508958091BA01877008959091BA013C
:1031A000977081E009F480E008958091C601089548
:1031B0009091C601892B8093C601089580959091C6
:1031C000C60198239093C60108951092C6010895F0
:1031D0009091C501892B8093C501089580959091A8
:1031E000C50198239093C50108951092C5010895D3
:1031F0009091C401892B8093C4010895809590918A
:10320000C40198239093C40108951092C4010895B5
:103210008091BB01089508950C940B199091BB0106
:10322000981721F08093BB010C940C19089580919C
:10323000BB01882329F01092BB0180E00C940C198B
:103240000895E0910001F09101018091C601808311
:10325000E0910001F091010180819091C501892BDD
:103260008083E0910001F091010180819091C4017F
:10327000892B80839091BB01992381F0E09100011B
:10328000F09101018081892B8083809100019091D0
:1032900001010E94451A81110E94171980910001B5
:1032A000909101010C94860D08950C94541998E0A6
:1032B000899F90011124622B6093BA010E945017DC
:1032C0008091BA018595859585950C945519109234
:1032D000BA0180E00C9455199091BA018095892328
:1032E0008093BA01282F277071F4282F082E000C24
:1032F000330B9217130639F08595859585950E94B5
:1033000071170C946719089590932D0180932C01E7
:103310000895829590E09C01220F331F220F331FE6
:103320002C7C95958795959587958373282B30E010
:10333000C901880F991F8A7A359527952575822BA3
:10334000089590E080E00E94392621E08C3E9E4F57
:1033500009F020E0822F089582E090E00C9431265D
:1033600083E090E00C943126CF9384E090E00E94BB
:103370003126C82F81E290E00E943126982F8C2FB1
:10338000CF910895CF93C92F682F84E090E00E94D9
:103390003F266C2F81E290E0CF910C943F26AB0149
:1033A000BC018FE090E00C945126AB01BC0183E19D
:1033B00090E00C94512660E070E0CB010C94D5199C
:1033C00060E070E0CB010E94CF190C94DB196CEE29
:1033D0007EEF90E080E00E945D2660E082E090E079
:1033E0000E943F2660E083E090E00E943F2610921A
:1033F000B6011092B7011092B8011092B90160E0C5
:1034000084E090E00E943F2660E081E290E00E942C
:103410003F2660E085E090E00E943F2660E086E085
:1034200090E00E943F266FEF87E090E00E943F26E9
:1034300040E050E0BA0188E090E00E94512660E050
:103440008DE090E00E943F2640E050E0BA0188E124
:1034500090E00E94512660E087E190E00E943F26C4
:1034600040E050E0BA018CE190E00E94512660E01B
:1034700080E290E00E943F260C94E0190C94E7193A
:10348000682F8EE090E00C943F269C012E5F3F4F0A
:10349000AC01485F5F4F80E02417350709F40895B9
:1034A000F90191919F019923B9F38F5FF5CF9C01A9
:1034B000FC0132969FEF80E04191461751F09F3F0B
:1034C00019F4411101C0982F8F5F8630A9F79F3FF3
:1034D00009F40895290F311D97FD3A95F90162838A
:1034E0000895FC01329608962191261303C0DF014E
:1034F00011971C92E817F907B9F708950C94571A19
:103500000C94711A029626E0FC0111922A95E9F7B3
:103510000895089508950C948A1A0E948B1A809138
:10352000E201843049F11092C80188E190E020E482
:103530000FB6F894A895809360000FBE20936000AA
:1035400080E00E9412070E948B1A83B7817F8460FB
:1035500083BF83B7816083BF7894889583B78E7F5C
:1035600083BF0FB6F894A89580916000886180931E
:103570006000109260000FBE08950895CF930E94DE
:10358000891A0E940B0C0E94BD1AC0E08C2F0E9469
:10359000790B811105C0CF5FC830C1F7CF91089575
:1035A00081E0FCCF08950C94D21A0E9494100E94DE
:1035B0007A0D0E9412070C94D31A1F921FB61F9205
:1035C00011248F939F93AF93BF938091C801811172
:1035D00013C08091D8019091D901A091DA01B091E6
:1035E000DB014196A11DB11D8093D8019093D901B3
:1035F000A093DA01B093DB01BF91AF919F918F91BE
:103600001F901FBE1F90189582E084BD93E095BD6A
:103610009AEF97BD80936E0008952FB7F89480912C
:10362000D8019091D901A091DA01B091DB012FBFAF
:1036300008952FB7F8946091D8017091D9018091C5
:10364000DA019091DB012FBF0895CF92DF92EF92C4
:10365000FF920F931F932FB7F8944091D801509188
:10366000D9016091DA017091DB012FBF6A017B0102
:10367000EE24FF248C0130E020E0C016D106E206E3
:10368000F30650F0481B590BCA011F910F91FF9090
:10369000EF90DF90CF90089541505109F3CF789487
:1036A0001F921FB61F9211248F939F93AF93BF93C6
:1036B0008091D8019091D901A091DA01B091DB01FC
:1036C0000196A11DB11D8093D8019093D901A093BB
:1036D000DA01B093DB01BF91AF919F918F911F9061
:1036E0001FBE1F90189581E08093E00080E28093D8
:1036F000D8001092C9008FE19EE40197F1F700C055
:10370000000087E090EBDC018093EB019093EC01EB
:10371000A093ED01B093EE0188E19CE00FB6F89420
:10372000A895809360000FBE90936000FFCF0E9429
:10373000A119811102C00E943E1A0E94AC19809307
:10374000C7010E94B4199093DD018093DC010E94AF
:10375000B019682F70E090E080E00C94EE16CF93E3
:10376000C82F1F928F9385EB93E09F938F930E94B6
:10377000390661E070E080E090E004C0660F771FDA
:10378000881F991FCA95D2F70E94EE160F900F90CE
:103790000F900F90CF910C949410CF93DF938B31B7
:1037A00009F409C208F0A0C18B3009F4C7C108F0C0
:1037B0006AC1863009F4D5C148F4853009F4A2C144
:1037C00083E898E00E94A00580E0DBC1873009F41F
:1037D000DBC18830A9F782E299E00E94A00583E767
:1037E00098E00E94A0050E94B0191F928F9380E775
:1037F00098E09F938F930E9439068EE698E00E948E
:10380000A0050E94AC19C82F8BE598E00E94A00586
:103810001F92CF9386E598E09F938F930E9439067D
:1038200084E598E00E94A0058AE498E00E94A00543
:103830008C2F81701F928F9387E498E09F938F93D2
:103840000E94390685E498E00E94A0058BE398E089
:103850000E94A005C1FB882780F91F928F9388E3FF
:1038600098E09F938F930E94390686E398E00E9428
:10387000A0058AE298E00E94A005C2FB882780F993
:103880001F928F9387E298E09F938F930E9439064F
:1038900085E298E00E94A0058CE198E00E94A005D6
:1038A000C3FBCC27C0F91F92CF9389E198E09F9387
:1038B0008F930E94390687E198E00E94A0050E943C
:1038C000B419EC0183E098E00E94A005DF93CF9348
:1038D0008EEF97E09F938F930E9439068CEF97E0CD
:1038E0000E94A00583EE97E00E94A0058C2F8170B6
:1038F0001F928F9380EE97E09F938F930E943906DB
:103900008DB79EB780960FB6F8949EBF0FBE8DBF41
:103910008EED97E00E94A00587EC97E00E94A0053D
:10392000C1FB882780F91F928F9384EC97E09F93C7
:103930008F930E94390682EC97E00E94A00580EBED
:1039400097E00E94A0058D2F81701F928F938DEAC2
:1039500097E09F938F930E9439068BEA97E00E942D
:10396000A00589E997E00E94A005D695D1701F9225
:10397000DF9386E997E09F938F930E94390684E94D
:1039800097E00E94A00582E897E00E94A005C2FB94
:10399000882780F91F928F938FE797E09F938F93EB
:1039A0000E9439068DE797E00E94A0058BE697E01C
:1039B0000E94A005C3FB882780F91F928F9388E699
:1039C00097E09F938F930E94390686E697E00E94C6
:1039D000A0058CE597E00E94A005C4FB882780F92C
:1039E0001F928F9389E597E09F938F930E943906EA
:1039F00087E597E00E94A00585E497E00E94A00576
:103A0000C5FB882780F91F928F9382E497E09F93EC
:103A10008F930E94390680E497E00E94A00584E21B
:103A200097E00E94A005C6FB882780F91F928F931C
:103A300081E297E09F938F930E9439068DB79EB7DE
:103A400080960FB6F8949EBF0FBE8DBF8FE197E0B2
:103A50000E94A00587E197E00E94A005C7FBCC2744
:103A6000C0F91F92CF9384E197E09F938F930E94B8
:103A7000390682E197E00E94A0050F900F900F9009
:103A80000F9081E07EC0803109F4ADC080F48E30AB
:103A900009F096CE9091C701892F8B7F92FF8460A9
:103AA0008093C70182FF9CC08EEA98E090C0863167
:103AB00009F4A9C0893109F083CE85E495E00E941C
:103AC000A00580EF94E00E94A00583EB94E00E94A3
:103AD000A0058BE794E00E94A0058EE494E00E948C
:103AE000A00583E294E02CC08A32A1F1E8F4873289
:103AF00069F128F48E3108F463CE8D5128C08932E3
:103B000009F05ECE0E94941081EF98E00E94A0051B
:103B10009FEF23ED80E3915020408040E1F700C00B
:103B200000000E94731BADCF833468F48A3308F021
:103B3000A1C0853359F0883309F042CE8FE695E075
:103B40000E94A0059ECF833409F03ACE80E00E9407
:103B5000AF1B97CF81E199E00E94A0050E943E1A19
:103B600090CF8091C701807F8093C70184E595E065
:103B70000E94A0058DE099E00E94A00581E080935D
:103B8000C901DF91CF9108959091C701892F8E7F50
:103B900090FF81608093C70180FF03C085EE98E0AD
:103BA000CFCF88ED98E00E94A0058091C701817F6A
:103BB0008093C70166CF9091C701892F8D7F91FFB8
:103BC00082608093C70181FF08C08BEC98E00E945F
:103BD000A0058091C7018160EBCF8DEB98E0B0CF5D
:103BE0008EE998E0ADCF9091C701892F877F93FF31
:103BF00088608093C70183FF03C082E998E0E7CF24
:103C000085E898E09DCF85E194E00E94A0050E94A0
:103C10007A0D1F928F938BEF93E09F938F930E9467
:103C2000390680910C011F928F9384EE93E09F934D
:103C30008F930E9439068091D6011F928F9381ED58
:103C400093E09F938F930E9439060E94191B9F93C4
:103C50008F937F936F938AEB93E09F938F930E9450
:103C600039068DB79EB742960FB6F8949EBF0FBE29
:103C70008DBF07CF89536BCF80E008950C943C1E15
:103C8000CF93C82F8091C901882331F0813099F0FA
:103C90001092C90180E00DC00E94D5188232D1F780
:103CA0008C2F0E943C1E811119C08C2F0E94CD1BAD
:103CB0008170CF9108950E94D518823289F38C2F9C
:103CC0000E943E1E811119C0C431C9F050F4CB309E
:103CD00061F08FEA93E00E94A00513C081E090E0BC
:103CE000E7CFC93261F0C833A1F784E595E00E94BF
:103CF000A00581EB93E00E94A00581E0D9CF10924E
:103D0000C90180E0D5CF8091D501089508959FB76E
:103D1000F8941092CC019FBF9091E201943009F089
:103D200048C02091E9002F703091EC00932F9170E2
:103D300030FD90E8922B23E02093E9002091EB00E6
:103D400020FF34C02091EE0027FF30C02091CA012F
:103D5000222321F02091E80025FF28C01092CA01FB
:103D600026E03091E80035FF14C08093F100809187
:103D7000E80085FD27C08091E80080FFFCCF80919E
:103D8000E8008E778093E8009F709093E90080E0D0
:103D900008953091E201343049F43091EB0035FD63
:103DA00005C0215041F481E08093CA019F70909337
:103DB000E9008FEF0895EFE9FFE03197F1F700C0D8
:103DC0000000CFCF8FB7F89421E02093CC018FBFB4
:103DD000DBCF0F931F93CF93DF9300D00F92CDB71C
:103DE000DEB78C010E947221823011F0843021F5FF
:103DF00084E089831B830A8382E08093E9008FEF4C
:103E00009091E800815095FD06C095ED9A95F1F7E7
:103E100000008111F5CF8091E80085FF0DC050E0D2
:103E200040E063E070E0CE0101960E948F21809116
:103E3000E8008E778093E8000F900F900F90DF914D
:103E4000CF911F910F910895CF93DF9300D00F92E0
:103E5000CDB7DEB72091E201243031F523E029838C
:103E6000805891099B838A8382E08093E9008FEFD9
:103E70009091E800815095FD06C095ED9A95F1F777
:103E800000008111F5CF8091E80085FF0DC050E062
:103E900040E063E070E0CE0101960E948F218091A6
:103EA000E8008E778093E8000F900F900F90DF91DD
:103EB000CF910895CF93DF93EC010E94722182305D
:103EC00011F0843039F581E08093E9008FEF909113
:103ED000E800815095FD06C095ED9A95F1F7000038
:103EE0008111F5CF8091E80085FF14C050E040E0DB
:103EF00068E070E0CE010E948F218091E8008E770B
:103F00008093E80088E0FE01ADECB1E001900D92F5
:103F10008A95E1F7DF91CF91089582E599E00E94BB
:103F2000A0058091E101811109C00E941F230E9418
:103F30007C238091E20084608093E20008958EE407
:103F400099E00E94A0051092E10108958AE499E0A9
:103F50000C94A00586E499E00C94A00582E499E015
:103F60000E94A0050C94D51A2091CB012F5F822FBF
:103F700062E30E941F26992319F02093CB01089534
:103F80001092CB018091CC018823F1F08091E20165
:103F90008430C1F49091E9009F702091EC00822F51
:103FA000817020FD80E8892B93E09093E900909147
:103FB000EB0090FF04C09091EE0097FD08C08F7059
:103FC0008093E9001092CC0108951092F100909135
:103FD000E80095FDFACF9091E80090FFF0CF909126
:103FE000E8009E779093E800EACF42E061EC81E040
:103FF0000E949B2242E261EC82E00E949B2242E20C
:1040000061EC83E00C949B228091E401833009F4FD
:104010005FC030F48130C1F1823009F49BC0089553
:104020008A3009F487C08B3009F46DC0893009F0FB
:104030004EC08091E301813209F049C08091E701CF
:104040009091E801029708F042C08091E800877FD4
:104050008093E8008091E80082FF35C09091F300E2
:104060008091F200029729F48091F1008B7F8130DA
:1040700021F48091F1008093D5018091E8008B7745
:104080008093E8000C94CF228091E301813AF9F407
:104090008091E800877F8093E8008091E70190910C
:1040A000E801892B61F468E08DEC91E070E00E94FA
:1040B000DE218091E8008B778093E800089560E02E
:1040C00090E080E0F3CF8091E2018111C3CF0895A9
:1040D0008091E301813AD9F78091E7019091E8015D
:1040E000892BA9F78091E800877F8093E800809171
:1040F000E80080FFFCCF80910C018093F10080915B
:10410000E8008E77BDCF8091E301813201F7809185
:10411000E7019091E801892BD1F68091E800877F33
:104120008093E8000E94CF228091E50180930C01EA
:104130000C9494108091E301813249F68091E8005B
:10414000877F8093E8000E94CF228091E6018093D0
:10415000D60108958091E301813A09F0B8CF8091AA
:10416000E800877F8093E8008091E80080FFFCCF23
:104170008091D601C2CF84B7877F84BF0FB6F894F1
:10418000A895809160008861809360001092600023
:104190000FBE80E880936100109261000E940C0EB7
:1041A0000E941F230E947C238091E2008460809300
:1041B000E20087E89EE10E94841978940E94042618
:1041C0000E94140E82E091E00E94750D81E399E057
:1041D0000E94A0058091E201853019F00E94440EF2
:1041E000F9CF8DE299E00E94A0050E948D1A80917E
:1041F000E001882379F30E94BE1A882359F30E94B4
:104200007921E8CF0C940421292F3327233031055D
:1042100021F168F42130310509F449C0223031051B
:1042200009F44AC090E080E030E020E029C021326B
:10423000310581F122323105A9F76330710590F71C
:10424000FB01EE0FFF1FE15EFE4F20813181645EB6
:104250007E4FFB01808190E013C09927813091054A
:1042600099F0009741F08230910589F00397D1F6DB
:10427000E6E5F9E002C0ECE8F9E0849190E09F0106
:10428000FA01318320830895E4E7F9E0F6CFECE505
:10429000F9E0F3CF6330710528F6660F771FFB0155
:1042A000EB5DFE4F2081318189E090E0E9CF82E132
:1042B00090E02BEE39E0E4CF8BE590E020E939E0A7
:1042C000DFCF0895CF93C82F0E946121C093D701FB
:1042D000CF9108958091E201843011F482E0089535
:1042E00081E008958091D701811102C00C946A2168
:1042F000089580E189BD82E189BD09B400FEFDCF4A
:104300008091D8008F7D8093D8008091E0008260FA
:104310008093E0008091E00081FDFCCF0895AF9292
:10432000BF92CF92DF92FF920F931F93CF93DF93B1
:104330006C01EB018A010E94EE22F82E811123C04C
:104340000115110539F0F80180819181C81BD90B45
:10435000C80ED91EB12CA12C2097A9F08091E8009D
:1043600085FD22C08091E8008E778093E8000115DA
:104370001105A1F0F80180819181A80EB91EB182CA
:10438000A08285E0F82E8F2DDF91CF911F910F91A4
:10439000FF90DF90CF90BF90AF9008950E94EE22E3
:1043A0008823D1F2F82EEFCFF60181916F0180932F
:1043B000F1002197FFEFAF1ABF0ACECFFC01809129
:1043C000E9019091EA0186179707A0F06115710540
:1043D00029F49091E8009E779093E80090E06115B1
:1043E000710551F4911108C08091E80082FF34C03A
:1043F00080E00895BC01F2CF8091E2018823C1F1F1
:104400008530C1F18091E80083FD30C08091E800E3
:1044100082FDEACF8091E80080FFE1CF8091F30038
:104420002091F200382F6115710519F028303105FF
:1044300058F091E02830310509F090E02091E80033
:104440002E772093E800CBCF81918093F1006150CB
:1044500071092F5F3F4FE7CF8091E201882341F040
:10446000853041F08091E80083FFBECF81E0089560
:1044700082E0089583E00895FC018091E901909124
:10448000EA0186179707A0F06115710529F480915C
:10449000E8008E778093E80090E06115710551F493
:1044A000911108C08091E80082FF35C080E0089536
:1044B000BC01F2CF8091E2018823C9F18530C9F1B6
:1044C0008091E80083FD31C08091E80082FDEACF51
:1044D0008091E80080FFE1CF8091F3002091F2000D
:1044E000382F6115710519F02830310558F091E029
:1044F0002830310509F090E08091E8008E778093B4
:10450000E800CBCF84918093F1003196615071091E
:104510002F5F3F4FE6CF8091E201882341F0853045
:1045200041F08091E80083FFBDCF81E0089582E0F3
:10453000089583E00895982F973028F08F70809326
:10454000E90081E008959093E900242F762F50E050
:10455000981731F07091EC002091ED005091F0002F
:1045600021FD02C09F5FE8CF3091EB003E7F30938A
:10457000EB003091ED003D7F3093ED003091EB008A
:1045800031603093EB007093EC002093ED0050937A
:10459000F0002091EE0027FDE5CF80E008958091A6
:1045A000E30187FF13C08091E80082FF06C080917D
:1045B000E8008B778093E80004C08091E2018111CC
:1045C000F2CF08958091E2018823D9F38091E80029
:1045D00080FFF8CF8091E8008E77ECCF2091E40047
:1045E0003091E50095E6A9012091EC00822F8170C1
:1045F00020FF06C08091E80080FF06C080E008959B
:104600002091E80022FD1AC08091E201882389F000
:10461000853089F08091EB0085FD0FC02091E4008A
:104620003091E50042175307F9F29150E1F684E02A
:10463000089582E0089583E0089581E008950E943E
:104640008D230E949523E0EEF0E0808181608083DD
:10465000E8EDF0E080818F77808319BCA7EDB0E0B2
:104660008C918E7F8C9380818F7E80831092E1016C
:1046700008950F931F93CF93DF930E948D230E9481
:104680009523C8EDD0E088818F7788838881806802
:10469000888388818F7D888319BC1092E2011092F3
:1046A000DE011092E0011092DF0100EE10E0F8014F
:1046B00080818B7F808388818160888342E060E095
:1046C00080E00E949B22E1EEF0E080818E7F80837B
:1046D000E2EEF0E080818160808380818860808369
:1046E000F80180818E7F8083888180618883DF915B
:1046F000CF911F910F910895E8EDF0E080818F7EBA
:104700008083E7EDF0E080818160808384E082BF78
:1047100081E08093E1010C943923E8EDF0E08081A1
:104720008E7F80831092E20008951092DA0010923A
:10473000E10008951F920F920FB60F9211242F934C
:104740003F934F935F936F937F938F939F93AF9319
:10475000BF93EF93FF938091E10082FF0BC08091A4
:10476000E20082FF07C08091E1008B7F8093E1002F
:104770000E94B41F8091DA0080FF19C08091D80098
:1047800080FF15C08091DA008E7F8093DA008091DF
:10479000D90080FF96C080E189BD82E189BD09B45E
:1047A00000FEFDCF81E08093E2010E948D1F809189
:1047B000E10080FF19C08091E20080FF15C0809168
:1047C000E2008E7F8093E2008091E200806180931E
:1047D000E2008091D80080628093D80019BC85E007
:1047E0008093E2010E94AA1F8091E10084FF2BC008
:1047F0008091E20084FF27C080E189BD82E189BD0C
:1048000089B5982F917080FFFBCF8091D8008F7D64
:104810008093D8008091E1008F7E8093E1008091A9
:10482000E2008F7E8093E2008091E20081608093BD
:10483000E2008091DE01882309F449C084E080937E
:10484000E2010E94AE1F8091E10083FF29C08091A8
:10485000E20083FF25C08091E100877F8093E10023
:1048600082E08093E2011092DE018091E1008E7F70
:104870008093E1008091E2008E7F8093E20080913E
:10488000E20080618093E20042E060E080E00E940C
:104890009B228091F00088608093F0000E94A61F08
:1048A000FF91EF91BF91AF919F918F917F916F9108
:1048B0005F914F913F912F910F900FBE0F901F90DE
:1048C000189519BC1092E2010E949F1F70CF809131
:1048D000E30087FD93E09093E201B3CF1F920F9224
:1048E0000FB60F9211242F933F934F935F936F93C3
:1048F0007F938F939F93AF93BF93CF93DF93EF9368
:10490000FF93D091E900DF708091EC00C82FC17057
:1049100080FDC0E81092E9008091F000877F8093CD
:10492000F00078940E94B2241092E9008091F00087
:1049300088608093F000CD2BCF70C093E900FF9189
:10494000EF91DF91CF91BF91AF919F918F917F9127
:104950006F915F914F913F912F910F900FBE0F90EC
:104960001F9018951F93CF93DF93CDB7DEB7AA970B
:104970000FB6F894DEBF0FBECDBF83EE91E020915D
:10498000F100FC012193CF01F1E08B3E9F07B9F7C5
:104990000E9404208091E80083FF1EC18091E30102
:1049A0009091E4019A3008F017C1E92FF0E0ED563C
:1049B000F94D0C942B26803899F0823809F00CC1FF
:1049C0008091E7018F70873008F006C18093E9007D
:1049D0008091EB0085FB882780F91092E90006C0E2
:1049E0008091DF019091E001911182609091E80047
:1049F000977F9093E8008093F1001092F1008091EE
:104A0000E8008E77E5C0882309F4D3C0823009F02E
:104A1000E3C08091E5018111D6C08091E7018F70DC
:104A20002FEF280F263008F0D7C08093E90020919F
:104A3000EB0020FFC8C0933031F48091EB0080621E
:104A40008093EB00C0C09091EB0090619093EB00DD
:104A500021E030E001C0220F8A95EAF72093EA00B6
:104A60001092EA008091EB008860EACF8111B4C017
:104A70001091E5011F778091E3008078812B80936E
:104A8000E3008091E800877F8093E8000E94CF22B6
:104A90008091E80080FFFCCF8091E30080688093E4
:104AA000E30082E0111183E08093E20195C0805819
:104AB000823008F091C08091E5019091E6018C3D33
:104AC00023E09207A1F583E08A838AE289834FB7C6
:104AD000F894DE01139620E03EE051E2E32FF0E08F
:104AE00050935700E49120FF03C0E295EF703F5FC1
:104AF000EF708E2F90E0EA30C0F0C7968D939D93B3
:104B00002F5F243159F74FBF8091E800877F809352
:104B1000E8006AE270E0CE0101960E94DE218091F9
:104B2000E8008B778093E80057C0C096E7CF60918C
:104B3000E7017091E801AE014F5F5F4F0E940221D3
:104B4000BC01892B09F448C09091E800977F9093AD
:104B5000E80089819A810E943C22E1CF8038E1F50A
:104B60008091E800877F8093E8008091DE01809348
:104B7000F10045CF811130C09091E501923060F590
:104B80008091E800877F8093E8009093DE010E9487
:104B9000CF228091DE01882311F084E005C080914E
:104BA000E30087FDFACF81E08093E2010E94F51FC8
:104BB00013C08091E501813079F481E0933009F0F0
:104BC00080E08093E0011092E9008091E800877F07
:104BD0008093E8000E94CF228091E80083FF0AC002
:104BE0008091E800877F8093E8008091EB008062ED
:104BF0008093EB00AA960FB6F894DEBF0FBECDBF30
:104C0000DF91CF911F910895CF938091E201882386
:104C1000A1F0C091E900CF709091EC00892F8170D4
:104C200090FD80E8C82B1092E9008091E80083FD98
:104C30000E94B224CF70C093E900CF910895991BD0
:104C400079E004C0991F961708F0961B881F7A9583
:104C5000C9F780950895EE0FFF1F0590F491E02DA0
:104C60000994F999FECF92BD81BDF89A992780B534
:104C70000895A8E1B0E042E050E00C946526262FAC
:104C8000F999FECF92BD81BDF89A019700B4021642
:104C900039F01FBA20BD0FB6F894FA9AF99A0FBEF0
:104CA00008950396272F0E9440260E943F26252F15
:104CB0000E944026242F0C9440260196272F0E9404
:104CC00040260C943F26DC01CB01FC01F999FECF74
:104CD00006C0F2BDE1BDF89A319600B40D92415084
:104CE0005040B8F70895F894FFCFA310A310AC106C
:104CF000AC10AE10AC10AC10AC10A310A310B310DD
:104D0000AC10AC10B310F110F11058115811AB11D8
:104D1000211121112111C511551265126512C312FD
:104D200021112111CC12DB240325EC250325EC25D0
:0A4D300036255725EC25AE25BA25DF
:104D3A00BC01831E5A1F861E241FE91E019093661A
:104D4A00363534F6F7679796F4F591924036225540
:0C4D5A000A1F0AFD09A209BB09D40900C8
:00000001FF
